{
	"calculate.sol": {
		"Calculator": {
			"abi": [
				{
					"inputs": [
						{
							"internalType": "uint256",
							"name": "a",
							"type": "uint256"
						},
						{
							"internalType": "uint256",
							"name": "b",
							"type": "uint256"
						}
					],
					"name": "add",
					"outputs": [
						{
							"internalType": "uint256",
							"name": "",
							"type": "uint256"
						}
					],
					"stateMutability": "nonpayable",
					"type": "function"
				},
				{
					"inputs": [
						{
							"internalType": "uint256",
							"name": "a",
							"type": "uint256"
						},
						{
							"internalType": "uint256",
							"name": "b",
							"type": "uint256"
						}
					],
					"name": "divide",
					"outputs": [
						{
							"internalType": "uint256",
							"name": "",
							"type": "uint256"
						},
						{
							"internalType": "string",
							"name": "",
							"type": "string"
						}
					],
					"stateMutability": "nonpayable",
					"type": "function"
				},
				{
					"inputs": [
						{
							"internalType": "uint256",
							"name": "a",
							"type": "uint256"
						},
						{
							"internalType": "uint256",
							"name": "b",
							"type": "uint256"
						}
					],
					"name": "multiply",
					"outputs": [
						{
							"internalType": "uint256",
							"name": "",
							"type": "uint256"
						}
					],
					"stateMutability": "nonpayable",
					"type": "function"
				},
				{
					"inputs": [],
					"name": "result",
					"outputs": [
						{
							"internalType": "uint256",
							"name": "",
							"type": "uint256"
						}
					],
					"stateMutability": "view",
					"type": "function"
				},
				{
					"inputs": [
						{
							"internalType": "uint256",
							"name": "a",
							"type": "uint256"
						},
						{
							"internalType": "uint256",
							"name": "b",
							"type": "uint256"
						}
					],
					"name": "subtract",
					"outputs": [
						{
							"internalType": "uint256",
							"name": "",
							"type": "uint256"
						}
					],
					"stateMutability": "nonpayable",
					"type": "function"
				}
			],
			"devdoc": {
				"kind": "dev",
				"methods": {},
				"version": 1
			},
			"evm": {
				"assembly": "    /* \"calculate.sol\":61:870  contract Calculator{... */\n  mstore(0x40, 0x80)\n  callvalue\n  dup1\n  iszero\n  tag_1\n  jumpi\n  revert(0x00, 0x00)\ntag_1:\n  pop\n  dataSize(sub_0)\n  dup1\n  dataOffset(sub_0)\n  0x00\n  codecopy\n  0x00\n  return\nstop\n\nsub_0: assembly {\n        /* \"calculate.sol\":61:870  contract Calculator{... */\n      mstore(0x40, 0x80)\n      callvalue\n      dup1\n      iszero\n      tag_1\n      jumpi\n      revert(0x00, 0x00)\n    tag_1:\n      pop\n      jumpi(tag_2, lt(calldatasize, 0x04))\n      shr(0xe0, calldataload(0x00))\n      dup1\n      0x165c4a16\n      eq\n      tag_3\n      jumpi\n      dup1\n      0x3ef5e445\n      eq\n      tag_4\n      jumpi\n      dup1\n      0x65372147\n      eq\n      tag_5\n      jumpi\n      dup1\n      0x771602f7\n      eq\n      tag_6\n      jumpi\n      dup1\n      0xf88e9fbf\n      eq\n      tag_7\n      jumpi\n    tag_2:\n      revert(0x00, 0x00)\n        /* \"calculate.sol\":418:541  function multiply(uint256 a, uint256 b) public returns(uint256) {... */\n    tag_3:\n      tag_8\n      0x04\n      dup1\n      calldatasize\n      sub\n      dup2\n      add\n      swap1\n      tag_9\n      swap2\n      swap1\n      tag_10\n      jump\t// in\n    tag_9:\n      tag_11\n      jump\t// in\n    tag_8:\n      mload(0x40)\n      tag_12\n      swap2\n      swap1\n      tag_13\n      jump\t// in\n    tag_12:\n      mload(0x40)\n      dup1\n      swap2\n      sub\n      swap1\n      return\n        /* \"calculate.sol\":284:407  function subtract(uint256 a, uint256 b) public returns(uint256){... */\n    tag_4:\n      tag_14\n      0x04\n      dup1\n      calldatasize\n      sub\n      dup2\n      add\n      swap1\n      tag_15\n      swap2\n      swap1\n      tag_10\n      jump\t// in\n    tag_15:\n      tag_16\n      jump\t// in\n    tag_14:\n      mload(0x40)\n      tag_17\n      swap2\n      swap1\n      tag_13\n      jump\t// in\n    tag_17:\n      mload(0x40)\n      dup1\n      swap2\n      sub\n      swap1\n      return\n        /* \"calculate.sol\":85:106  uint256 public result */\n    tag_5:\n      tag_18\n      tag_19\n      jump\t// in\n    tag_18:\n      mload(0x40)\n      tag_20\n      swap2\n      swap1\n      tag_13\n      jump\t// in\n    tag_20:\n      mload(0x40)\n      dup1\n      swap2\n      sub\n      swap1\n      return\n        /* \"calculate.sol\":157:273  function add(uint256 a,uint256 b) public returns(uint256) {... */\n    tag_6:\n      tag_21\n      0x04\n      dup1\n      calldatasize\n      sub\n      dup2\n      add\n      swap1\n      tag_22\n      swap2\n      swap1\n      tag_10\n      jump\t// in\n    tag_22:\n      tag_23\n      jump\t// in\n    tag_21:\n      mload(0x40)\n      tag_24\n      swap2\n      swap1\n      tag_13\n      jump\t// in\n    tag_24:\n      mload(0x40)\n      dup1\n      swap2\n      sub\n      swap1\n      return\n        /* \"calculate.sol\":552:854  function divide(uint256 a, uint256 b) public  returns(uint256,string memory){... */\n    tag_7:\n      tag_25\n      0x04\n      dup1\n      calldatasize\n      sub\n      dup2\n      add\n      swap1\n      tag_26\n      swap2\n      swap1\n      tag_10\n      jump\t// in\n    tag_26:\n      tag_27\n      jump\t// in\n    tag_25:\n      mload(0x40)\n      tag_28\n      swap3\n      swap2\n      swap1\n      tag_29\n      jump\t// in\n    tag_28:\n      mload(0x40)\n      dup1\n      swap2\n      sub\n      swap1\n      return\n        /* \"calculate.sol\":418:541  function multiply(uint256 a, uint256 b) public returns(uint256) {... */\n    tag_11:\n        /* \"calculate.sol\":473:480  uint256 */\n      0x00\n        /* \"calculate.sol\":505:506  b */\n      dup2\n        /* \"calculate.sol\":502:503  a */\n      dup4\n        /* \"calculate.sol\":502:506  a* b */\n      tag_31\n      swap2\n      swap1\n      tag_32\n      jump\t// in\n    tag_31:\n        /* \"calculate.sol\":493:499  result */\n      0x00\n        /* \"calculate.sol\":493:506  result = a* b */\n      dup2\n      swap1\n      sstore\n      pop\n        /* \"calculate.sol\":524:530  result */\n      sload(0x00)\n        /* \"calculate.sol\":517:530  return result */\n      swap1\n      pop\n        /* \"calculate.sol\":418:541  function multiply(uint256 a, uint256 b) public returns(uint256) {... */\n      swap3\n      swap2\n      pop\n      pop\n      jump\t// out\n        /* \"calculate.sol\":284:407  function subtract(uint256 a, uint256 b) public returns(uint256){... */\n    tag_16:\n        /* \"calculate.sol\":339:346  uint256 */\n      0x00\n        /* \"calculate.sol\":371:372  b */\n      dup2\n        /* \"calculate.sol\":367:368  a */\n      dup4\n        /* \"calculate.sol\":367:372  a - b */\n      tag_34\n      swap2\n      swap1\n      tag_35\n      jump\t// in\n    tag_34:\n        /* \"calculate.sol\":358:364  result */\n      0x00\n        /* \"calculate.sol\":358:372  result = a - b */\n      dup2\n      swap1\n      sstore\n      pop\n        /* \"calculate.sol\":390:396  result */\n      sload(0x00)\n        /* \"calculate.sol\":383:396  return result */\n      swap1\n      pop\n        /* \"calculate.sol\":284:407  function subtract(uint256 a, uint256 b) public returns(uint256){... */\n      swap3\n      swap2\n      pop\n      pop\n      jump\t// out\n        /* \"calculate.sol\":85:106  uint256 public result */\n    tag_19:\n      sload(0x00)\n      dup2\n      jump\t// out\n        /* \"calculate.sol\":157:273  function add(uint256 a,uint256 b) public returns(uint256) {... */\n    tag_23:\n        /* \"calculate.sol\":206:213  uint256 */\n      0x00\n        /* \"calculate.sol\":237:238  b */\n      dup2\n        /* \"calculate.sol\":233:234  a */\n      dup4\n        /* \"calculate.sol\":233:238  a + b */\n      tag_37\n      swap2\n      swap1\n      tag_38\n      jump\t// in\n    tag_37:\n        /* \"calculate.sol\":224:230  result */\n      0x00\n        /* \"calculate.sol\":224:238  result = a + b */\n      dup2\n      swap1\n      sstore\n      pop\n        /* \"calculate.sol\":256:262  result */\n      sload(0x00)\n        /* \"calculate.sol\":249:262  return result */\n      swap1\n      pop\n        /* \"calculate.sol\":157:273  function add(uint256 a,uint256 b) public returns(uint256) {... */\n      swap3\n      swap2\n      pop\n      pop\n      jump\t// out\n        /* \"calculate.sol\":552:854  function divide(uint256 a, uint256 b) public  returns(uint256,string memory){... */\n    tag_27:\n        /* \"calculate.sol\":606:613  uint256 */\n      0x00\n        /* \"calculate.sol\":614:627  string memory */\n      0x60\n        /* \"calculate.sol\":651:652  0 */\n      0x00\n        /* \"calculate.sol\":646:647  b */\n      dup4\n        /* \"calculate.sol\":646:652  b == 0 */\n      sub\n        /* \"calculate.sol\":643:833  if(b == 0){... */\n      tag_40\n      jumpi\n        /* \"calculate.sol\":679:680  0 */\n      0x00\n        /* \"calculate.sol\":670:676  result */\n      0x00\n        /* \"calculate.sol\":670:680  result = 0 */\n      dup2\n      swap1\n      sstore\n      pop\n        /* \"calculate.sol\":706:707  0 */\n      0x00\n        /* \"calculate.sol\":697:721  return ( 0,\"Math Error\") */\n      mload(0x40)\n      dup1\n      0x40\n      add\n      0x40\n      mstore\n      dup1\n      0x0a\n      dup2\n      mstore\n      0x20\n      add\n      0x4d617468204572726f7200000000000000000000000000000000000000000000\n      dup2\n      mstore\n      pop\n      swap2\n      pop\n      swap2\n      pop\n      jump(tag_39)\n        /* \"calculate.sol\":643:833  if(b == 0){... */\n    tag_40:\n        /* \"calculate.sol\":783:784  b */\n      dup3\n        /* \"calculate.sol\":781:782  a */\n      dup5\n        /* \"calculate.sol\":781:784  a/b */\n      tag_42\n      swap2\n      swap1\n      tag_43\n      jump\t// in\n    tag_42:\n        /* \"calculate.sol\":772:778  result */\n      0x00\n        /* \"calculate.sol\":772:784  result = a/b */\n      dup2\n      swap1\n      sstore\n      pop\n        /* \"calculate.sol\":807:813  result */\n      sload(0x00)\n        /* \"calculate.sol\":799:817  return (result,\"\") */\n      mload(0x40)\n      dup1\n      0x20\n      add\n      0x40\n      mstore\n      dup1\n      0x00\n      dup2\n      mstore\n      pop\n      swap2\n      pop\n      swap2\n      pop\n        /* \"calculate.sol\":552:854  function divide(uint256 a, uint256 b) public  returns(uint256,string memory){... */\n    tag_39:\n      swap3\n      pop\n      swap3\n      swap1\n      pop\n      jump\t// out\n        /* \"#utility.yul\":88:205   */\n    tag_45:\n        /* \"#utility.yul\":197:198   */\n      0x00\n        /* \"#utility.yul\":194:195   */\n      0x00\n        /* \"#utility.yul\":187:199   */\n      revert\n        /* \"#utility.yul\":334:411   */\n    tag_47:\n        /* \"#utility.yul\":371:378   */\n      0x00\n        /* \"#utility.yul\":400:405   */\n      dup2\n        /* \"#utility.yul\":389:405   */\n      swap1\n      pop\n        /* \"#utility.yul\":334:411   */\n      swap2\n      swap1\n      pop\n      jump\t// out\n        /* \"#utility.yul\":417:539   */\n    tag_48:\n        /* \"#utility.yul\":490:514   */\n      tag_64\n        /* \"#utility.yul\":508:513   */\n      dup2\n        /* \"#utility.yul\":490:514   */\n      tag_47\n      jump\t// in\n    tag_64:\n        /* \"#utility.yul\":483:488   */\n      dup2\n        /* \"#utility.yul\":480:515   */\n      eq\n        /* \"#utility.yul\":470:533   */\n      tag_65\n      jumpi\n        /* \"#utility.yul\":529:530   */\n      0x00\n        /* \"#utility.yul\":526:527   */\n      0x00\n        /* \"#utility.yul\":519:531   */\n      revert\n        /* \"#utility.yul\":470:533   */\n    tag_65:\n        /* \"#utility.yul\":417:539   */\n      pop\n      jump\t// out\n        /* \"#utility.yul\":545:684   */\n    tag_49:\n        /* \"#utility.yul\":591:596   */\n      0x00\n        /* \"#utility.yul\":629:635   */\n      dup2\n        /* \"#utility.yul\":616:636   */\n      calldataload\n        /* \"#utility.yul\":607:636   */\n      swap1\n      pop\n        /* \"#utility.yul\":645:678   */\n      tag_67\n        /* \"#utility.yul\":672:677   */\n      dup2\n        /* \"#utility.yul\":645:678   */\n      tag_48\n      jump\t// in\n    tag_67:\n        /* \"#utility.yul\":545:684   */\n      swap3\n      swap2\n      pop\n      pop\n      jump\t// out\n        /* \"#utility.yul\":690:1164   */\n    tag_10:\n        /* \"#utility.yul\":758:764   */\n      0x00\n        /* \"#utility.yul\":766:772   */\n      0x00\n        /* \"#utility.yul\":815:817   */\n      0x40\n        /* \"#utility.yul\":803:812   */\n      dup4\n        /* \"#utility.yul\":794:801   */\n      dup6\n        /* \"#utility.yul\":790:813   */\n      sub\n        /* \"#utility.yul\":786:818   */\n      slt\n        /* \"#utility.yul\":783:902   */\n      iszero\n      tag_69\n      jumpi\n        /* \"#utility.yul\":821:900   */\n      tag_70\n      tag_45\n      jump\t// in\n    tag_70:\n        /* \"#utility.yul\":783:902   */\n    tag_69:\n        /* \"#utility.yul\":941:942   */\n      0x00\n        /* \"#utility.yul\":966:1019   */\n      tag_71\n        /* \"#utility.yul\":1011:1018   */\n      dup6\n        /* \"#utility.yul\":1002:1008   */\n      dup3\n        /* \"#utility.yul\":991:1000   */\n      dup7\n        /* \"#utility.yul\":987:1009   */\n      add\n        /* \"#utility.yul\":966:1019   */\n      tag_49\n      jump\t// in\n    tag_71:\n        /* \"#utility.yul\":956:1019   */\n      swap3\n      pop\n        /* \"#utility.yul\":912:1029   */\n      pop\n        /* \"#utility.yul\":1068:1070   */\n      0x20\n        /* \"#utility.yul\":1094:1147   */\n      tag_72\n        /* \"#utility.yul\":1139:1146   */\n      dup6\n        /* \"#utility.yul\":1130:1136   */\n      dup3\n        /* \"#utility.yul\":1119:1128   */\n      dup7\n        /* \"#utility.yul\":1115:1137   */\n      add\n        /* \"#utility.yul\":1094:1147   */\n      tag_49\n      jump\t// in\n    tag_72:\n        /* \"#utility.yul\":1084:1147   */\n      swap2\n      pop\n        /* \"#utility.yul\":1039:1157   */\n      pop\n        /* \"#utility.yul\":690:1164   */\n      swap3\n      pop\n      swap3\n      swap1\n      pop\n      jump\t// out\n        /* \"#utility.yul\":1170:1288   */\n    tag_50:\n        /* \"#utility.yul\":1257:1281   */\n      tag_74\n        /* \"#utility.yul\":1275:1280   */\n      dup2\n        /* \"#utility.yul\":1257:1281   */\n      tag_47\n      jump\t// in\n    tag_74:\n        /* \"#utility.yul\":1252:1255   */\n      dup3\n        /* \"#utility.yul\":1245:1282   */\n      mstore\n        /* \"#utility.yul\":1170:1288   */\n      pop\n      pop\n      jump\t// out\n        /* \"#utility.yul\":1294:1516   */\n    tag_13:\n        /* \"#utility.yul\":1387:1391   */\n      0x00\n        /* \"#utility.yul\":1425:1427   */\n      0x20\n        /* \"#utility.yul\":1414:1423   */\n      dup3\n        /* \"#utility.yul\":1410:1428   */\n      add\n        /* \"#utility.yul\":1402:1428   */\n      swap1\n      pop\n        /* \"#utility.yul\":1438:1509   */\n      tag_76\n        /* \"#utility.yul\":1506:1507   */\n      0x00\n        /* \"#utility.yul\":1495:1504   */\n      dup4\n        /* \"#utility.yul\":1491:1508   */\n      add\n        /* \"#utility.yul\":1482:1488   */\n      dup5\n        /* \"#utility.yul\":1438:1509   */\n      tag_50\n      jump\t// in\n    tag_76:\n        /* \"#utility.yul\":1294:1516   */\n      swap3\n      swap2\n      pop\n      pop\n      jump\t// out\n        /* \"#utility.yul\":1522:1621   */\n    tag_51:\n        /* \"#utility.yul\":1574:1580   */\n      0x00\n        /* \"#utility.yul\":1608:1613   */\n      dup2\n        /* \"#utility.yul\":1602:1614   */\n      mload\n        /* \"#utility.yul\":1592:1614   */\n      swap1\n      pop\n        /* \"#utility.yul\":1522:1621   */\n      swap2\n      swap1\n      pop\n      jump\t// out\n        /* \"#utility.yul\":1627:1796   */\n    tag_52:\n        /* \"#utility.yul\":1711:1722   */\n      0x00\n        /* \"#utility.yul\":1745:1751   */\n      dup3\n        /* \"#utility.yul\":1740:1743   */\n      dup3\n        /* \"#utility.yul\":1733:1752   */\n      mstore\n        /* \"#utility.yul\":1785:1789   */\n      0x20\n        /* \"#utility.yul\":1780:1783   */\n      dup3\n        /* \"#utility.yul\":1776:1790   */\n      add\n        /* \"#utility.yul\":1761:1790   */\n      swap1\n      pop\n        /* \"#utility.yul\":1627:1796   */\n      swap3\n      swap2\n      pop\n      pop\n      jump\t// out\n        /* \"#utility.yul\":1802:1941   */\n    tag_53:\n        /* \"#utility.yul\":1891:1897   */\n      dup3\n        /* \"#utility.yul\":1886:1889   */\n      dup2\n        /* \"#utility.yul\":1881:1884   */\n      dup4\n        /* \"#utility.yul\":1875:1898   */\n      mcopy\n        /* \"#utility.yul\":1932:1933   */\n      0x00\n        /* \"#utility.yul\":1923:1929   */\n      dup4\n        /* \"#utility.yul\":1918:1921   */\n      dup4\n        /* \"#utility.yul\":1914:1930   */\n      add\n        /* \"#utility.yul\":1907:1934   */\n      mstore\n        /* \"#utility.yul\":1802:1941   */\n      pop\n      pop\n      pop\n      jump\t// out\n        /* \"#utility.yul\":1947:2049   */\n    tag_54:\n        /* \"#utility.yul\":1988:1994   */\n      0x00\n        /* \"#utility.yul\":2039:2041   */\n      0x1f\n        /* \"#utility.yul\":2035:2042   */\n      not\n        /* \"#utility.yul\":2030:2032   */\n      0x1f\n        /* \"#utility.yul\":2023:2028   */\n      dup4\n        /* \"#utility.yul\":2019:2033   */\n      add\n        /* \"#utility.yul\":2015:2043   */\n      and\n        /* \"#utility.yul\":2005:2043   */\n      swap1\n      pop\n        /* \"#utility.yul\":1947:2049   */\n      swap2\n      swap1\n      pop\n      jump\t// out\n        /* \"#utility.yul\":2055:2432   */\n    tag_55:\n        /* \"#utility.yul\":2143:2146   */\n      0x00\n        /* \"#utility.yul\":2171:2210   */\n      tag_82\n        /* \"#utility.yul\":2204:2209   */\n      dup3\n        /* \"#utility.yul\":2171:2210   */\n      tag_51\n      jump\t// in\n    tag_82:\n        /* \"#utility.yul\":2226:2297   */\n      tag_83\n        /* \"#utility.yul\":2290:2296   */\n      dup2\n        /* \"#utility.yul\":2285:2288   */\n      dup6\n        /* \"#utility.yul\":2226:2297   */\n      tag_52\n      jump\t// in\n    tag_83:\n        /* \"#utility.yul\":2219:2297   */\n      swap4\n      pop\n        /* \"#utility.yul\":2306:2371   */\n      tag_84\n        /* \"#utility.yul\":2364:2370   */\n      dup2\n        /* \"#utility.yul\":2359:2362   */\n      dup6\n        /* \"#utility.yul\":2352:2356   */\n      0x20\n        /* \"#utility.yul\":2345:2350   */\n      dup7\n        /* \"#utility.yul\":2341:2357   */\n      add\n        /* \"#utility.yul\":2306:2371   */\n      tag_53\n      jump\t// in\n    tag_84:\n        /* \"#utility.yul\":2396:2425   */\n      tag_85\n        /* \"#utility.yul\":2418:2424   */\n      dup2\n        /* \"#utility.yul\":2396:2425   */\n      tag_54\n      jump\t// in\n    tag_85:\n        /* \"#utility.yul\":2391:2394   */\n      dup5\n        /* \"#utility.yul\":2387:2426   */\n      add\n        /* \"#utility.yul\":2380:2426   */\n      swap2\n      pop\n        /* \"#utility.yul\":2147:2432   */\n      pop\n        /* \"#utility.yul\":2055:2432   */\n      swap3\n      swap2\n      pop\n      pop\n      jump\t// out\n        /* \"#utility.yul\":2438:2861   */\n    tag_29:\n        /* \"#utility.yul\":2579:2583   */\n      0x00\n        /* \"#utility.yul\":2617:2619   */\n      0x40\n        /* \"#utility.yul\":2606:2615   */\n      dup3\n        /* \"#utility.yul\":2602:2620   */\n      add\n        /* \"#utility.yul\":2594:2620   */\n      swap1\n      pop\n        /* \"#utility.yul\":2630:2701   */\n      tag_87\n        /* \"#utility.yul\":2698:2699   */\n      0x00\n        /* \"#utility.yul\":2687:2696   */\n      dup4\n        /* \"#utility.yul\":2683:2700   */\n      add\n        /* \"#utility.yul\":2674:2680   */\n      dup6\n        /* \"#utility.yul\":2630:2701   */\n      tag_50\n      jump\t// in\n    tag_87:\n        /* \"#utility.yul\":2748:2757   */\n      dup2\n        /* \"#utility.yul\":2742:2746   */\n      dup2\n        /* \"#utility.yul\":2738:2758   */\n      sub\n        /* \"#utility.yul\":2733:2735   */\n      0x20\n        /* \"#utility.yul\":2722:2731   */\n      dup4\n        /* \"#utility.yul\":2718:2736   */\n      add\n        /* \"#utility.yul\":2711:2759   */\n      mstore\n        /* \"#utility.yul\":2776:2854   */\n      tag_88\n        /* \"#utility.yul\":2849:2853   */\n      dup2\n        /* \"#utility.yul\":2840:2846   */\n      dup5\n        /* \"#utility.yul\":2776:2854   */\n      tag_55\n      jump\t// in\n    tag_88:\n        /* \"#utility.yul\":2768:2854   */\n      swap1\n      pop\n        /* \"#utility.yul\":2438:2861   */\n      swap4\n      swap3\n      pop\n      pop\n      pop\n      jump\t// out\n        /* \"#utility.yul\":2867:3047   */\n    tag_56:\n        /* \"#utility.yul\":2915:2992   */\n      0x4e487b7100000000000000000000000000000000000000000000000000000000\n        /* \"#utility.yul\":2912:2913   */\n      0x00\n        /* \"#utility.yul\":2905:2993   */\n      mstore\n        /* \"#utility.yul\":3012:3016   */\n      0x11\n        /* \"#utility.yul\":3009:3010   */\n      0x04\n        /* \"#utility.yul\":3002:3017   */\n      mstore\n        /* \"#utility.yul\":3036:3040   */\n      0x24\n        /* \"#utility.yul\":3033:3034   */\n      0x00\n        /* \"#utility.yul\":3026:3041   */\n      revert\n        /* \"#utility.yul\":3053:3463   */\n    tag_32:\n        /* \"#utility.yul\":3093:3100   */\n      0x00\n        /* \"#utility.yul\":3116:3136   */\n      tag_91\n        /* \"#utility.yul\":3134:3135   */\n      dup3\n        /* \"#utility.yul\":3116:3136   */\n      tag_47\n      jump\t// in\n    tag_91:\n        /* \"#utility.yul\":3111:3136   */\n      swap2\n      pop\n        /* \"#utility.yul\":3150:3170   */\n      tag_92\n        /* \"#utility.yul\":3168:3169   */\n      dup4\n        /* \"#utility.yul\":3150:3170   */\n      tag_47\n      jump\t// in\n    tag_92:\n        /* \"#utility.yul\":3145:3170   */\n      swap3\n      pop\n        /* \"#utility.yul\":3205:3206   */\n      dup3\n        /* \"#utility.yul\":3202:3203   */\n      dup3\n        /* \"#utility.yul\":3198:3207   */\n      mul\n        /* \"#utility.yul\":3227:3257   */\n      tag_93\n        /* \"#utility.yul\":3245:3256   */\n      dup2\n        /* \"#utility.yul\":3227:3257   */\n      tag_47\n      jump\t// in\n    tag_93:\n        /* \"#utility.yul\":3216:3257   */\n      swap2\n      pop\n        /* \"#utility.yul\":3406:3407   */\n      dup3\n        /* \"#utility.yul\":3397:3404   */\n      dup3\n        /* \"#utility.yul\":3393:3408   */\n      div\n        /* \"#utility.yul\":3390:3391   */\n      dup5\n        /* \"#utility.yul\":3387:3409   */\n      eq\n        /* \"#utility.yul\":3367:3368   */\n      dup4\n        /* \"#utility.yul\":3360:3369   */\n      iszero\n        /* \"#utility.yul\":3340:3423   */\n      or\n        /* \"#utility.yul\":3317:3456   */\n      tag_94\n      jumpi\n        /* \"#utility.yul\":3436:3454   */\n      tag_95\n      tag_56\n      jump\t// in\n    tag_95:\n        /* \"#utility.yul\":3317:3456   */\n    tag_94:\n        /* \"#utility.yul\":3101:3463   */\n      pop\n        /* \"#utility.yul\":3053:3463   */\n      swap3\n      swap2\n      pop\n      pop\n      jump\t// out\n        /* \"#utility.yul\":3469:3663   */\n    tag_35:\n        /* \"#utility.yul\":3509:3513   */\n      0x00\n        /* \"#utility.yul\":3529:3549   */\n      tag_97\n        /* \"#utility.yul\":3547:3548   */\n      dup3\n        /* \"#utility.yul\":3529:3549   */\n      tag_47\n      jump\t// in\n    tag_97:\n        /* \"#utility.yul\":3524:3549   */\n      swap2\n      pop\n        /* \"#utility.yul\":3563:3583   */\n      tag_98\n        /* \"#utility.yul\":3581:3582   */\n      dup4\n        /* \"#utility.yul\":3563:3583   */\n      tag_47\n      jump\t// in\n    tag_98:\n        /* \"#utility.yul\":3558:3583   */\n      swap3\n      pop\n        /* \"#utility.yul\":3607:3608   */\n      dup3\n        /* \"#utility.yul\":3604:3605   */\n      dup3\n        /* \"#utility.yul\":3600:3609   */\n      sub\n        /* \"#utility.yul\":3592:3609   */\n      swap1\n      pop\n        /* \"#utility.yul\":3631:3632   */\n      dup2\n        /* \"#utility.yul\":3625:3629   */\n      dup2\n        /* \"#utility.yul\":3622:3633   */\n      gt\n        /* \"#utility.yul\":3619:3656   */\n      iszero\n      tag_99\n      jumpi\n        /* \"#utility.yul\":3636:3654   */\n      tag_100\n      tag_56\n      jump\t// in\n    tag_100:\n        /* \"#utility.yul\":3619:3656   */\n    tag_99:\n        /* \"#utility.yul\":3469:3663   */\n      swap3\n      swap2\n      pop\n      pop\n      jump\t// out\n        /* \"#utility.yul\":3669:3860   */\n    tag_38:\n        /* \"#utility.yul\":3709:3712   */\n      0x00\n        /* \"#utility.yul\":3728:3748   */\n      tag_102\n        /* \"#utility.yul\":3746:3747   */\n      dup3\n        /* \"#utility.yul\":3728:3748   */\n      tag_47\n      jump\t// in\n    tag_102:\n        /* \"#utility.yul\":3723:3748   */\n      swap2\n      pop\n        /* \"#utility.yul\":3762:3782   */\n      tag_103\n        /* \"#utility.yul\":3780:3781   */\n      dup4\n        /* \"#utility.yul\":3762:3782   */\n      tag_47\n      jump\t// in\n    tag_103:\n        /* \"#utility.yul\":3757:3782   */\n      swap3\n      pop\n        /* \"#utility.yul\":3805:3806   */\n      dup3\n        /* \"#utility.yul\":3802:3803   */\n      dup3\n        /* \"#utility.yul\":3798:3807   */\n      add\n        /* \"#utility.yul\":3791:3807   */\n      swap1\n      pop\n        /* \"#utility.yul\":3826:3829   */\n      dup1\n        /* \"#utility.yul\":3823:3824   */\n      dup3\n        /* \"#utility.yul\":3820:3830   */\n      gt\n        /* \"#utility.yul\":3817:3853   */\n      iszero\n      tag_104\n      jumpi\n        /* \"#utility.yul\":3833:3851   */\n      tag_105\n      tag_56\n      jump\t// in\n    tag_105:\n        /* \"#utility.yul\":3817:3853   */\n    tag_104:\n        /* \"#utility.yul\":3669:3860   */\n      swap3\n      swap2\n      pop\n      pop\n      jump\t// out\n        /* \"#utility.yul\":3866:4046   */\n    tag_57:\n        /* \"#utility.yul\":3914:3991   */\n      0x4e487b7100000000000000000000000000000000000000000000000000000000\n        /* \"#utility.yul\":3911:3912   */\n      0x00\n        /* \"#utility.yul\":3904:3992   */\n      mstore\n        /* \"#utility.yul\":4011:4015   */\n      0x12\n        /* \"#utility.yul\":4008:4009   */\n      0x04\n        /* \"#utility.yul\":4001:4016   */\n      mstore\n        /* \"#utility.yul\":4035:4039   */\n      0x24\n        /* \"#utility.yul\":4032:4033   */\n      0x00\n        /* \"#utility.yul\":4025:4040   */\n      revert\n        /* \"#utility.yul\":4052:4237   */\n    tag_43:\n        /* \"#utility.yul\":4092:4093   */\n      0x00\n        /* \"#utility.yul\":4109:4129   */\n      tag_108\n        /* \"#utility.yul\":4127:4128   */\n      dup3\n        /* \"#utility.yul\":4109:4129   */\n      tag_47\n      jump\t// in\n    tag_108:\n        /* \"#utility.yul\":4104:4129   */\n      swap2\n      pop\n        /* \"#utility.yul\":4143:4163   */\n      tag_109\n        /* \"#utility.yul\":4161:4162   */\n      dup4\n        /* \"#utility.yul\":4143:4163   */\n      tag_47\n      jump\t// in\n    tag_109:\n        /* \"#utility.yul\":4138:4163   */\n      swap3\n      pop\n        /* \"#utility.yul\":4182:4183   */\n      dup3\n        /* \"#utility.yul\":4172:4207   */\n      tag_110\n      jumpi\n        /* \"#utility.yul\":4187:4205   */\n      tag_111\n      tag_57\n      jump\t// in\n    tag_111:\n        /* \"#utility.yul\":4172:4207   */\n    tag_110:\n        /* \"#utility.yul\":4229:4230   */\n      dup3\n        /* \"#utility.yul\":4226:4227   */\n      dup3\n        /* \"#utility.yul\":4222:4231   */\n      div\n        /* \"#utility.yul\":4217:4231   */\n      swap1\n      pop\n        /* \"#utility.yul\":4052:4237   */\n      swap3\n      swap2\n      pop\n      pop\n      jump\t// out\n\n    auxdata: 0xa26469706673582212202bef182c75d1012087e005e4f9fc2eafc7bccb7440ae9092ac63e08092e1b30a64736f6c634300081e0033\n}\n",
				"bytecode": {
					"linkReferences": {},
					"object": "6080604052348015600e575f5ffd5b506104b18061001c5f395ff3fe608060405234801561000f575f5ffd5b5060043610610055575f3560e01c8063165c4a16146100595780633ef5e4451461008957806365372147146100b9578063771602f7146100d7578063f88e9fbf14610107575b5f5ffd5b610073600480360381019061006e9190610246565b610138565b6040516100809190610293565b60405180910390f35b6100a3600480360381019061009e9190610246565b610154565b6040516100b09190610293565b60405180910390f35b6100c1610170565b6040516100ce9190610293565b60405180910390f35b6100f160048036038101906100ec9190610246565b610175565b6040516100fe9190610293565b60405180910390f35b610121600480360381019061011c9190610246565b610191565b60405161012f92919061031c565b60405180910390f35b5f81836101459190610377565b5f819055505f54905092915050565b5f818361016191906103b8565b5f819055505f54905092915050565b5f5481565b5f818361018291906103eb565b5f819055505f54905092915050565b5f60605f83036101e1575f5f819055505f6040518060400160405280600a81526020017f4d617468204572726f720000000000000000000000000000000000000000000081525091509150610208565b82846101ed919061044b565b5f819055505f5460405180602001604052805f815250915091505b9250929050565b5f5ffd5b5f819050919050565b61022581610213565b811461022f575f5ffd5b50565b5f813590506102408161021c565b92915050565b5f5f6040838503121561025c5761025b61020f565b5b5f61026985828601610232565b925050602061027a85828601610232565b9150509250929050565b61028d81610213565b82525050565b5f6020820190506102a65f830184610284565b92915050565b5f81519050919050565b5f82825260208201905092915050565b8281835e5f83830152505050565b5f601f19601f8301169050919050565b5f6102ee826102ac565b6102f881856102b6565b93506103088185602086016102c6565b610311816102d4565b840191505092915050565b5f60408201905061032f5f830185610284565b818103602083015261034181846102e4565b90509392505050565b7f4e487b71000000000000000000000000000000000000000000000000000000005f52601160045260245ffd5b5f61038182610213565b915061038c83610213565b925082820261039a81610213565b915082820484148315176103b1576103b061034a565b5b5092915050565b5f6103c282610213565b91506103cd83610213565b92508282039050818111156103e5576103e461034a565b5b92915050565b5f6103f582610213565b915061040083610213565b92508282019050808211156104185761041761034a565b5b92915050565b7f4e487b71000000000000000000000000000000000000000000000000000000005f52601260045260245ffd5b5f61045582610213565b915061046083610213565b9250826104705761046f61041e565b5b82820490509291505056fea26469706673582212202bef182c75d1012087e005e4f9fc2eafc7bccb7440ae9092ac63e08092e1b30a64736f6c634300081e0033",
					"opcodes": "PUSH1 0x80 PUSH1 0x40 MSTORE CALLVALUE DUP1 ISZERO PUSH1 0xE JUMPI PUSH0 PUSH0 REVERT JUMPDEST POP PUSH2 0x4B1 DUP1 PUSH2 0x1C PUSH0 CODECOPY PUSH0 RETURN INVALID PUSH1 0x80 PUSH1 0x40 MSTORE CALLVALUE DUP1 ISZERO PUSH2 0xF JUMPI PUSH0 PUSH0 REVERT JUMPDEST POP PUSH1 0x4 CALLDATASIZE LT PUSH2 0x55 JUMPI PUSH0 CALLDATALOAD PUSH1 0xE0 SHR DUP1 PUSH4 0x165C4A16 EQ PUSH2 0x59 JUMPI DUP1 PUSH4 0x3EF5E445 EQ PUSH2 0x89 JUMPI DUP1 PUSH4 0x65372147 EQ PUSH2 0xB9 JUMPI DUP1 PUSH4 0x771602F7 EQ PUSH2 0xD7 JUMPI DUP1 PUSH4 0xF88E9FBF EQ PUSH2 0x107 JUMPI JUMPDEST PUSH0 PUSH0 REVERT JUMPDEST PUSH2 0x73 PUSH1 0x4 DUP1 CALLDATASIZE SUB DUP2 ADD SWAP1 PUSH2 0x6E SWAP2 SWAP1 PUSH2 0x246 JUMP JUMPDEST PUSH2 0x138 JUMP JUMPDEST PUSH1 0x40 MLOAD PUSH2 0x80 SWAP2 SWAP1 PUSH2 0x293 JUMP JUMPDEST PUSH1 0x40 MLOAD DUP1 SWAP2 SUB SWAP1 RETURN JUMPDEST PUSH2 0xA3 PUSH1 0x4 DUP1 CALLDATASIZE SUB DUP2 ADD SWAP1 PUSH2 0x9E SWAP2 SWAP1 PUSH2 0x246 JUMP JUMPDEST PUSH2 0x154 JUMP JUMPDEST PUSH1 0x40 MLOAD PUSH2 0xB0 SWAP2 SWAP1 PUSH2 0x293 JUMP JUMPDEST PUSH1 0x40 MLOAD DUP1 SWAP2 SUB SWAP1 RETURN JUMPDEST PUSH2 0xC1 PUSH2 0x170 JUMP JUMPDEST PUSH1 0x40 MLOAD PUSH2 0xCE SWAP2 SWAP1 PUSH2 0x293 JUMP JUMPDEST PUSH1 0x40 MLOAD DUP1 SWAP2 SUB SWAP1 RETURN JUMPDEST PUSH2 0xF1 PUSH1 0x4 DUP1 CALLDATASIZE SUB DUP2 ADD SWAP1 PUSH2 0xEC SWAP2 SWAP1 PUSH2 0x246 JUMP JUMPDEST PUSH2 0x175 JUMP JUMPDEST PUSH1 0x40 MLOAD PUSH2 0xFE SWAP2 SWAP1 PUSH2 0x293 JUMP JUMPDEST PUSH1 0x40 MLOAD DUP1 SWAP2 SUB SWAP1 RETURN JUMPDEST PUSH2 0x121 PUSH1 0x4 DUP1 CALLDATASIZE SUB DUP2 ADD SWAP1 PUSH2 0x11C SWAP2 SWAP1 PUSH2 0x246 JUMP JUMPDEST PUSH2 0x191 JUMP JUMPDEST PUSH1 0x40 MLOAD PUSH2 0x12F SWAP3 SWAP2 SWAP1 PUSH2 0x31C JUMP JUMPDEST PUSH1 0x40 MLOAD DUP1 SWAP2 SUB SWAP1 RETURN JUMPDEST PUSH0 DUP2 DUP4 PUSH2 0x145 SWAP2 SWAP1 PUSH2 0x377 JUMP JUMPDEST PUSH0 DUP2 SWAP1 SSTORE POP PUSH0 SLOAD SWAP1 POP SWAP3 SWAP2 POP POP JUMP JUMPDEST PUSH0 DUP2 DUP4 PUSH2 0x161 SWAP2 SWAP1 PUSH2 0x3B8 JUMP JUMPDEST PUSH0 DUP2 SWAP1 SSTORE POP PUSH0 SLOAD SWAP1 POP SWAP3 SWAP2 POP POP JUMP JUMPDEST PUSH0 SLOAD DUP2 JUMP JUMPDEST PUSH0 DUP2 DUP4 PUSH2 0x182 SWAP2 SWAP1 PUSH2 0x3EB JUMP JUMPDEST PUSH0 DUP2 SWAP1 SSTORE POP PUSH0 SLOAD SWAP1 POP SWAP3 SWAP2 POP POP JUMP JUMPDEST PUSH0 PUSH1 0x60 PUSH0 DUP4 SUB PUSH2 0x1E1 JUMPI PUSH0 PUSH0 DUP2 SWAP1 SSTORE POP PUSH0 PUSH1 0x40 MLOAD DUP1 PUSH1 0x40 ADD PUSH1 0x40 MSTORE DUP1 PUSH1 0xA DUP2 MSTORE PUSH1 0x20 ADD PUSH32 0x4D617468204572726F7200000000000000000000000000000000000000000000 DUP2 MSTORE POP SWAP2 POP SWAP2 POP PUSH2 0x208 JUMP JUMPDEST DUP3 DUP5 PUSH2 0x1ED SWAP2 SWAP1 PUSH2 0x44B JUMP JUMPDEST PUSH0 DUP2 SWAP1 SSTORE POP PUSH0 SLOAD PUSH1 0x40 MLOAD DUP1 PUSH1 0x20 ADD PUSH1 0x40 MSTORE DUP1 PUSH0 DUP2 MSTORE POP SWAP2 POP SWAP2 POP JUMPDEST SWAP3 POP SWAP3 SWAP1 POP JUMP JUMPDEST PUSH0 PUSH0 REVERT JUMPDEST PUSH0 DUP2 SWAP1 POP SWAP2 SWAP1 POP JUMP JUMPDEST PUSH2 0x225 DUP2 PUSH2 0x213 JUMP JUMPDEST DUP2 EQ PUSH2 0x22F JUMPI PUSH0 PUSH0 REVERT JUMPDEST POP JUMP JUMPDEST PUSH0 DUP2 CALLDATALOAD SWAP1 POP PUSH2 0x240 DUP2 PUSH2 0x21C JUMP JUMPDEST SWAP3 SWAP2 POP POP JUMP JUMPDEST PUSH0 PUSH0 PUSH1 0x40 DUP4 DUP6 SUB SLT ISZERO PUSH2 0x25C JUMPI PUSH2 0x25B PUSH2 0x20F JUMP JUMPDEST JUMPDEST PUSH0 PUSH2 0x269 DUP6 DUP3 DUP7 ADD PUSH2 0x232 JUMP JUMPDEST SWAP3 POP POP PUSH1 0x20 PUSH2 0x27A DUP6 DUP3 DUP7 ADD PUSH2 0x232 JUMP JUMPDEST SWAP2 POP POP SWAP3 POP SWAP3 SWAP1 POP JUMP JUMPDEST PUSH2 0x28D DUP2 PUSH2 0x213 JUMP JUMPDEST DUP3 MSTORE POP POP JUMP JUMPDEST PUSH0 PUSH1 0x20 DUP3 ADD SWAP1 POP PUSH2 0x2A6 PUSH0 DUP4 ADD DUP5 PUSH2 0x284 JUMP JUMPDEST SWAP3 SWAP2 POP POP JUMP JUMPDEST PUSH0 DUP2 MLOAD SWAP1 POP SWAP2 SWAP1 POP JUMP JUMPDEST PUSH0 DUP3 DUP3 MSTORE PUSH1 0x20 DUP3 ADD SWAP1 POP SWAP3 SWAP2 POP POP JUMP JUMPDEST DUP3 DUP2 DUP4 MCOPY PUSH0 DUP4 DUP4 ADD MSTORE POP POP POP JUMP JUMPDEST PUSH0 PUSH1 0x1F NOT PUSH1 0x1F DUP4 ADD AND SWAP1 POP SWAP2 SWAP1 POP JUMP JUMPDEST PUSH0 PUSH2 0x2EE DUP3 PUSH2 0x2AC JUMP JUMPDEST PUSH2 0x2F8 DUP2 DUP6 PUSH2 0x2B6 JUMP JUMPDEST SWAP4 POP PUSH2 0x308 DUP2 DUP6 PUSH1 0x20 DUP7 ADD PUSH2 0x2C6 JUMP JUMPDEST PUSH2 0x311 DUP2 PUSH2 0x2D4 JUMP JUMPDEST DUP5 ADD SWAP2 POP POP SWAP3 SWAP2 POP POP JUMP JUMPDEST PUSH0 PUSH1 0x40 DUP3 ADD SWAP1 POP PUSH2 0x32F PUSH0 DUP4 ADD DUP6 PUSH2 0x284 JUMP JUMPDEST DUP2 DUP2 SUB PUSH1 0x20 DUP4 ADD MSTORE PUSH2 0x341 DUP2 DUP5 PUSH2 0x2E4 JUMP JUMPDEST SWAP1 POP SWAP4 SWAP3 POP POP POP JUMP JUMPDEST PUSH32 0x4E487B7100000000000000000000000000000000000000000000000000000000 PUSH0 MSTORE PUSH1 0x11 PUSH1 0x4 MSTORE PUSH1 0x24 PUSH0 REVERT JUMPDEST PUSH0 PUSH2 0x381 DUP3 PUSH2 0x213 JUMP JUMPDEST SWAP2 POP PUSH2 0x38C DUP4 PUSH2 0x213 JUMP JUMPDEST SWAP3 POP DUP3 DUP3 MUL PUSH2 0x39A DUP2 PUSH2 0x213 JUMP JUMPDEST SWAP2 POP DUP3 DUP3 DIV DUP5 EQ DUP4 ISZERO OR PUSH2 0x3B1 JUMPI PUSH2 0x3B0 PUSH2 0x34A JUMP JUMPDEST JUMPDEST POP SWAP3 SWAP2 POP POP JUMP JUMPDEST PUSH0 PUSH2 0x3C2 DUP3 PUSH2 0x213 JUMP JUMPDEST SWAP2 POP PUSH2 0x3CD DUP4 PUSH2 0x213 JUMP JUMPDEST SWAP3 POP DUP3 DUP3 SUB SWAP1 POP DUP2 DUP2 GT ISZERO PUSH2 0x3E5 JUMPI PUSH2 0x3E4 PUSH2 0x34A JUMP JUMPDEST JUMPDEST SWAP3 SWAP2 POP POP JUMP JUMPDEST PUSH0 PUSH2 0x3F5 DUP3 PUSH2 0x213 JUMP JUMPDEST SWAP2 POP PUSH2 0x400 DUP4 PUSH2 0x213 JUMP JUMPDEST SWAP3 POP DUP3 DUP3 ADD SWAP1 POP DUP1 DUP3 GT ISZERO PUSH2 0x418 JUMPI PUSH2 0x417 PUSH2 0x34A JUMP JUMPDEST JUMPDEST SWAP3 SWAP2 POP POP JUMP JUMPDEST PUSH32 0x4E487B7100000000000000000000000000000000000000000000000000000000 PUSH0 MSTORE PUSH1 0x12 PUSH1 0x4 MSTORE PUSH1 0x24 PUSH0 REVERT JUMPDEST PUSH0 PUSH2 0x455 DUP3 PUSH2 0x213 JUMP JUMPDEST SWAP2 POP PUSH2 0x460 DUP4 PUSH2 0x213 JUMP JUMPDEST SWAP3 POP DUP3 PUSH2 0x470 JUMPI PUSH2 0x46F PUSH2 0x41E JUMP JUMPDEST JUMPDEST DUP3 DUP3 DIV SWAP1 POP SWAP3 SWAP2 POP POP JUMP INVALID LOG2 PUSH5 0x6970667358 0x22 SLT KECCAK256 0x2B 0xEF XOR 0x2C PUSH22 0xD1012087E005E4F9FC2EAFC7BCCB7440AE9092AC63E0 DUP1 SWAP3 RJUMPI 0xB30A PUSH5 0x736F6C6343 STOP ADDMOD 0x1E STOP CALLER "
				},
				"gasEstimates": {
					"creation": {
						"codeDepositCost": "240200",
						"executionCost": "279",
						"totalCost": "240479"
					},
					"external": {
						"add(uint256,uint256)": "infinite",
						"divide(uint256,uint256)": "infinite",
						"multiply(uint256,uint256)": "infinite",
						"result()": "2446",
						"subtract(uint256,uint256)": "infinite"
					}
				},
				"methodIdentifiers": {
					"add(uint256,uint256)": "771602f7",
					"divide(uint256,uint256)": "f88e9fbf",
					"multiply(uint256,uint256)": "165c4a16",
					"result()": "65372147",
					"subtract(uint256,uint256)": "3ef5e445"
				}
			},
			"storageLayout": {
				"storage": [
					{
						"astId": 3,
						"contract": "calculate.sol:Calculator",
						"label": "result",
						"offset": 0,
						"slot": "0",
						"type": "t_uint256"
					}
				],
				"types": {
					"t_uint256": {
						"encoding": "inplace",
						"label": "uint256",
						"numberOfBytes": "32"
					}
				}
			},
			"userdoc": {
				"kind": "user",
				"methods": {},
				"version": 1
			}
		}
	}
}