{
	"Structs/structs.sol": {
		"Struct": {
			"abi": [
				{
					"inputs": [
						{
							"internalType": "string",
							"name": "company",
							"type": "string"
						},
						{
							"internalType": "string",
							"name": "position",
							"type": "string"
						},
						{
							"internalType": "uint256",
							"name": "salary",
							"type": "uint256"
						},
						{
							"internalType": "string",
							"name": "time",
							"type": "string"
						}
					],
					"name": "addCustomer",
					"outputs": [],
					"stateMutability": "nonpayable",
					"type": "function"
				},
				{
					"inputs": [
						{
							"internalType": "uint256",
							"name": "",
							"type": "uint256"
						}
					],
					"name": "customers",
					"outputs": [
						{
							"internalType": "string",
							"name": "Company",
							"type": "string"
						},
						{
							"internalType": "string",
							"name": "Position",
							"type": "string"
						},
						{
							"internalType": "uint256",
							"name": "Salary",
							"type": "uint256"
						},
						{
							"internalType": "string",
							"name": "TimeStarted",
							"type": "string"
						}
					],
					"stateMutability": "view",
					"type": "function"
				}
			],
			"devdoc": {
				"kind": "dev",
				"methods": {},
				"version": 1
			},
			"evm": {
				"assembly": "    /* \"Structs/structs.sol\":60:824  contract Struct{... */\n  mstore(0x40, 0x80)\n  callvalue\n  dup1\n  iszero\n  tag_1\n  jumpi\n  revert(0x00, 0x00)\ntag_1:\n  pop\n  dataSize(sub_0)\n  dup1\n  dataOffset(sub_0)\n  0x00\n  codecopy\n  0x00\n  return\nstop\n\nsub_0: assembly {\n        /* \"Structs/structs.sol\":60:824  contract Struct{... */\n      mstore(0x40, 0x80)\n      callvalue\n      dup1\n      iszero\n      tag_1\n      jumpi\n      revert(0x00, 0x00)\n    tag_1:\n      pop\n      jumpi(tag_2, lt(calldatasize, 0x04))\n      shr(0xe0, calldataload(0x00))\n      dup1\n      0x635a7e54\n      eq\n      tag_3\n      jumpi\n      dup1\n      0xc0abda2a\n      eq\n      tag_4\n      jumpi\n    tag_2:\n      revert(0x00, 0x00)\n        /* \"Structs/structs.sol\":510:819  function addCustomer(string memory company,string memory position,uint256 salary,string memory time) public {... */\n    tag_3:\n      tag_5\n      0x04\n      dup1\n      calldatasize\n      sub\n      dup2\n      add\n      swap1\n      tag_6\n      swap2\n      swap1\n      tag_7\n      jump\t// in\n    tag_6:\n      tag_8\n      jump\t// in\n    tag_5:\n      stop\n        /* \"Structs/structs.sol\":373:400  Customer[] public customers */\n    tag_4:\n      tag_9\n      0x04\n      dup1\n      calldatasize\n      sub\n      dup2\n      add\n      swap1\n      tag_10\n      swap2\n      swap1\n      tag_11\n      jump\t// in\n    tag_10:\n      tag_12\n      jump\t// in\n    tag_9:\n      mload(0x40)\n      tag_13\n      swap5\n      swap4\n      swap3\n      swap2\n      swap1\n      tag_14\n      jump\t// in\n    tag_13:\n      mload(0x40)\n      dup1\n      swap2\n      sub\n      swap1\n      return\n        /* \"Structs/structs.sol\":510:819  function addCustomer(string memory company,string memory position,uint256 salary,string memory time) public {... */\n    tag_8:\n        /* \"Structs/structs.sol\":625:652  Customer memory newCustomer */\n      0x00\n        /* \"Structs/structs.sol\":655:781  Customer({... */\n      mload(0x40)\n      dup1\n      0x80\n      add\n      0x40\n      mstore\n      dup1\n        /* \"Structs/structs.sol\":684:691  company */\n      dup7\n        /* \"Structs/structs.sol\":655:781  Customer({... */\n      dup2\n      mstore\n      0x20\n      add\n        /* \"Structs/structs.sol\":712:720  position */\n      dup6\n        /* \"Structs/structs.sol\":655:781  Customer({... */\n      dup2\n      mstore\n      0x20\n      add\n        /* \"Structs/structs.sol\":739:745  salary */\n      dup5\n        /* \"Structs/structs.sol\":655:781  Customer({... */\n      dup2\n      mstore\n      0x20\n      add\n        /* \"Structs/structs.sol\":769:773  time */\n      dup4\n        /* \"Structs/structs.sol\":655:781  Customer({... */\n      dup2\n      mstore\n      pop\n        /* \"Structs/structs.sol\":625:781  Customer memory newCustomer = Customer({... */\n      swap1\n      pop\n        /* \"Structs/structs.sol\":788:797  customers */\n      0x00\n        /* \"Structs/structs.sol\":803:814  newCustomer */\n      dup2\n        /* \"Structs/structs.sol\":788:815  customers.push(newCustomer) */\n      swap1\n      dup1\n      0x01\n      dup2\n      sload\n      add\n      dup1\n      dup3\n      sstore\n      dup1\n      swap2\n      pop\n      pop\n      0x01\n      swap1\n      sub\n      swap1\n      0x00\n      mstore\n      keccak256(0x00, 0x20)\n      swap1\n      0x04\n      mul\n      add\n      0x00\n      swap1\n      swap2\n      swap1\n      swap2\n      swap1\n      swap2\n      pop\n      0x00\n      dup3\n      add\n      mload\n      dup2\n      0x00\n      add\n      swap1\n      dup2\n      tag_17\n      swap2\n      swap1\n      tag_18\n      jump\t// in\n    tag_17:\n      pop\n      0x20\n      dup3\n      add\n      mload\n      dup2\n      0x01\n      add\n      swap1\n      dup2\n      tag_19\n      swap2\n      swap1\n      tag_18\n      jump\t// in\n    tag_19:\n      pop\n      0x40\n      dup3\n      add\n      mload\n      dup2\n      0x02\n      add\n      sstore\n      0x60\n      dup3\n      add\n      mload\n      dup2\n      0x03\n      add\n      swap1\n      dup2\n      tag_20\n      swap2\n      swap1\n      tag_18\n      jump\t// in\n    tag_20:\n      pop\n      pop\n      pop\n        /* \"Structs/structs.sol\":618:819  {... */\n      pop\n        /* \"Structs/structs.sol\":510:819  function addCustomer(string memory company,string memory position,uint256 salary,string memory time) public {... */\n      pop\n      pop\n      pop\n      pop\n      jump\t// out\n        /* \"Structs/structs.sol\":373:400  Customer[] public customers */\n    tag_12:\n      0x00\n      dup2\n      dup2\n      sload\n      dup2\n      lt\n      tag_21\n      jumpi\n      0x00\n      dup1\n      revert\n    tag_21:\n      swap1\n      0x00\n      mstore\n      keccak256(0x00, 0x20)\n      swap1\n      0x04\n      mul\n      add\n      0x00\n      swap2\n      pop\n      swap1\n      pop\n      dup1\n      0x00\n      add\n      dup1\n      sload\n      tag_23\n      swap1\n      tag_24\n      jump\t// in\n    tag_23:\n      dup1\n      0x1f\n      add\n      0x20\n      dup1\n      swap2\n      div\n      mul\n      0x20\n      add\n      mload(0x40)\n      swap1\n      dup2\n      add\n      0x40\n      mstore\n      dup1\n      swap3\n      swap2\n      swap1\n      dup2\n      dup2\n      mstore\n      0x20\n      add\n      dup3\n      dup1\n      sload\n      tag_25\n      swap1\n      tag_24\n      jump\t// in\n    tag_25:\n      dup1\n      iszero\n      tag_26\n      jumpi\n      dup1\n      0x1f\n      lt\n      tag_27\n      jumpi\n      0x0100\n      dup1\n      dup4\n      sload\n      div\n      mul\n      dup4\n      mstore\n      swap2\n      0x20\n      add\n      swap2\n      jump(tag_26)\n    tag_27:\n      dup3\n      add\n      swap2\n      swap1\n      0x00\n      mstore\n      keccak256(0x00, 0x20)\n      swap1\n    tag_28:\n      dup2\n      sload\n      dup2\n      mstore\n      swap1\n      0x01\n      add\n      swap1\n      0x20\n      add\n      dup1\n      dup4\n      gt\n      tag_28\n      jumpi\n      dup3\n      swap1\n      sub\n      0x1f\n      and\n      dup3\n      add\n      swap2\n    tag_26:\n      pop\n      pop\n      pop\n      pop\n      pop\n      swap1\n      dup1\n      0x01\n      add\n      dup1\n      sload\n      tag_29\n      swap1\n      tag_24\n      jump\t// in\n    tag_29:\n      dup1\n      0x1f\n      add\n      0x20\n      dup1\n      swap2\n      div\n      mul\n      0x20\n      add\n      mload(0x40)\n      swap1\n      dup2\n      add\n      0x40\n      mstore\n      dup1\n      swap3\n      swap2\n      swap1\n      dup2\n      dup2\n      mstore\n      0x20\n      add\n      dup3\n      dup1\n      sload\n      tag_30\n      swap1\n      tag_24\n      jump\t// in\n    tag_30:\n      dup1\n      iszero\n      tag_31\n      jumpi\n      dup1\n      0x1f\n      lt\n      tag_32\n      jumpi\n      0x0100\n      dup1\n      dup4\n      sload\n      div\n      mul\n      dup4\n      mstore\n      swap2\n      0x20\n      add\n      swap2\n      jump(tag_31)\n    tag_32:\n      dup3\n      add\n      swap2\n      swap1\n      0x00\n      mstore\n      keccak256(0x00, 0x20)\n      swap1\n    tag_33:\n      dup2\n      sload\n      dup2\n      mstore\n      swap1\n      0x01\n      add\n      swap1\n      0x20\n      add\n      dup1\n      dup4\n      gt\n      tag_33\n      jumpi\n      dup3\n      swap1\n      sub\n      0x1f\n      and\n      dup3\n      add\n      swap2\n    tag_31:\n      pop\n      pop\n      pop\n      pop\n      pop\n      swap1\n      dup1\n      0x02\n      add\n      sload\n      swap1\n      dup1\n      0x03\n      add\n      dup1\n      sload\n      tag_34\n      swap1\n      tag_24\n      jump\t// in\n    tag_34:\n      dup1\n      0x1f\n      add\n      0x20\n      dup1\n      swap2\n      div\n      mul\n      0x20\n      add\n      mload(0x40)\n      swap1\n      dup2\n      add\n      0x40\n      mstore\n      dup1\n      swap3\n      swap2\n      swap1\n      dup2\n      dup2\n      mstore\n      0x20\n      add\n      dup3\n      dup1\n      sload\n      tag_35\n      swap1\n      tag_24\n      jump\t// in\n    tag_35:\n      dup1\n      iszero\n      tag_36\n      jumpi\n      dup1\n      0x1f\n      lt\n      tag_37\n      jumpi\n      0x0100\n      dup1\n      dup4\n      sload\n      div\n      mul\n      dup4\n      mstore\n      swap2\n      0x20\n      add\n      swap2\n      jump(tag_36)\n    tag_37:\n      dup3\n      add\n      swap2\n      swap1\n      0x00\n      mstore\n      keccak256(0x00, 0x20)\n      swap1\n    tag_38:\n      dup2\n      sload\n      dup2\n      mstore\n      swap1\n      0x01\n      add\n      swap1\n      0x20\n      add\n      dup1\n      dup4\n      gt\n      tag_38\n      jumpi\n      dup3\n      swap1\n      sub\n      0x1f\n      and\n      dup3\n      add\n      swap2\n    tag_36:\n      pop\n      pop\n      pop\n      pop\n      pop\n      swap1\n      pop\n      dup5\n      jump\t// out\n        /* \"#utility.yul\":7:82   */\n    tag_39:\n        /* \"#utility.yul\":40:46   */\n      0x00\n        /* \"#utility.yul\":73:75   */\n      0x40\n        /* \"#utility.yul\":67:76   */\n      mload\n        /* \"#utility.yul\":57:76   */\n      swap1\n      pop\n        /* \"#utility.yul\":7:82   */\n      swap1\n      jump\t// out\n        /* \"#utility.yul\":88:205   */\n    tag_40:\n        /* \"#utility.yul\":197:198   */\n      0x00\n        /* \"#utility.yul\":194:195   */\n      0x00\n        /* \"#utility.yul\":187:199   */\n      revert\n        /* \"#utility.yul\":211:328   */\n    tag_41:\n        /* \"#utility.yul\":320:321   */\n      0x00\n        /* \"#utility.yul\":317:318   */\n      0x00\n        /* \"#utility.yul\":310:322   */\n      revert\n        /* \"#utility.yul\":334:451   */\n    tag_42:\n        /* \"#utility.yul\":443:444   */\n      0x00\n        /* \"#utility.yul\":440:441   */\n      0x00\n        /* \"#utility.yul\":433:445   */\n      revert\n        /* \"#utility.yul\":457:574   */\n    tag_43:\n        /* \"#utility.yul\":566:567   */\n      0x00\n        /* \"#utility.yul\":563:564   */\n      0x00\n        /* \"#utility.yul\":556:568   */\n      revert\n        /* \"#utility.yul\":580:682   */\n    tag_44:\n        /* \"#utility.yul\":621:627   */\n      0x00\n        /* \"#utility.yul\":672:674   */\n      0x1f\n        /* \"#utility.yul\":668:675   */\n      not\n        /* \"#utility.yul\":663:665   */\n      0x1f\n        /* \"#utility.yul\":656:661   */\n      dup4\n        /* \"#utility.yul\":652:666   */\n      add\n        /* \"#utility.yul\":648:676   */\n      and\n        /* \"#utility.yul\":638:676   */\n      swap1\n      pop\n        /* \"#utility.yul\":580:682   */\n      swap2\n      swap1\n      pop\n      jump\t// out\n        /* \"#utility.yul\":688:868   */\n    tag_45:\n        /* \"#utility.yul\":736:813   */\n      0x4e487b7100000000000000000000000000000000000000000000000000000000\n        /* \"#utility.yul\":733:734   */\n      0x00\n        /* \"#utility.yul\":726:814   */\n      mstore\n        /* \"#utility.yul\":833:837   */\n      0x41\n        /* \"#utility.yul\":830:831   */\n      0x04\n        /* \"#utility.yul\":823:838   */\n      mstore\n        /* \"#utility.yul\":857:861   */\n      0x24\n        /* \"#utility.yul\":854:855   */\n      0x00\n        /* \"#utility.yul\":847:862   */\n      revert\n        /* \"#utility.yul\":874:1155   */\n    tag_46:\n        /* \"#utility.yul\":957:984   */\n      tag_85\n        /* \"#utility.yul\":979:983   */\n      dup3\n        /* \"#utility.yul\":957:984   */\n      tag_44\n      jump\t// in\n    tag_85:\n        /* \"#utility.yul\":949:955   */\n      dup2\n        /* \"#utility.yul\":945:985   */\n      add\n        /* \"#utility.yul\":1087:1093   */\n      dup2\n        /* \"#utility.yul\":1075:1085   */\n      dup2\n        /* \"#utility.yul\":1072:1094   */\n      lt\n        /* \"#utility.yul\":1051:1069   */\n      0xffffffffffffffff\n        /* \"#utility.yul\":1039:1049   */\n      dup3\n        /* \"#utility.yul\":1036:1070   */\n      gt\n        /* \"#utility.yul\":1033:1095   */\n      or\n        /* \"#utility.yul\":1030:1118   */\n      iszero\n      tag_86\n      jumpi\n        /* \"#utility.yul\":1098:1116   */\n      tag_87\n      tag_45\n      jump\t// in\n    tag_87:\n        /* \"#utility.yul\":1030:1118   */\n    tag_86:\n        /* \"#utility.yul\":1138:1148   */\n      dup1\n        /* \"#utility.yul\":1134:1136   */\n      0x40\n        /* \"#utility.yul\":1127:1149   */\n      mstore\n        /* \"#utility.yul\":917:1155   */\n      pop\n        /* \"#utility.yul\":874:1155   */\n      pop\n      pop\n      jump\t// out\n        /* \"#utility.yul\":1161:1290   */\n    tag_47:\n        /* \"#utility.yul\":1195:1201   */\n      0x00\n        /* \"#utility.yul\":1222:1242   */\n      tag_89\n      tag_39\n      jump\t// in\n    tag_89:\n        /* \"#utility.yul\":1212:1242   */\n      swap1\n      pop\n        /* \"#utility.yul\":1251:1284   */\n      tag_90\n        /* \"#utility.yul\":1279:1283   */\n      dup3\n        /* \"#utility.yul\":1271:1277   */\n      dup3\n        /* \"#utility.yul\":1251:1284   */\n      tag_46\n      jump\t// in\n    tag_90:\n        /* \"#utility.yul\":1161:1290   */\n      swap2\n      swap1\n      pop\n      jump\t// out\n        /* \"#utility.yul\":1296:1604   */\n    tag_48:\n        /* \"#utility.yul\":1358:1362   */\n      0x00\n        /* \"#utility.yul\":1448:1466   */\n      0xffffffffffffffff\n        /* \"#utility.yul\":1440:1446   */\n      dup3\n        /* \"#utility.yul\":1437:1467   */\n      gt\n        /* \"#utility.yul\":1434:1490   */\n      iszero\n      tag_92\n      jumpi\n        /* \"#utility.yul\":1470:1488   */\n      tag_93\n      tag_45\n      jump\t// in\n    tag_93:\n        /* \"#utility.yul\":1434:1490   */\n    tag_92:\n        /* \"#utility.yul\":1508:1537   */\n      tag_94\n        /* \"#utility.yul\":1530:1536   */\n      dup3\n        /* \"#utility.yul\":1508:1537   */\n      tag_44\n      jump\t// in\n    tag_94:\n        /* \"#utility.yul\":1500:1537   */\n      swap1\n      pop\n        /* \"#utility.yul\":1592:1596   */\n      0x20\n        /* \"#utility.yul\":1586:1590   */\n      dup2\n        /* \"#utility.yul\":1582:1597   */\n      add\n        /* \"#utility.yul\":1574:1597   */\n      swap1\n      pop\n        /* \"#utility.yul\":1296:1604   */\n      swap2\n      swap1\n      pop\n      jump\t// out\n        /* \"#utility.yul\":1610:1758   */\n    tag_49:\n        /* \"#utility.yul\":1708:1714   */\n      dup3\n        /* \"#utility.yul\":1703:1706   */\n      dup2\n        /* \"#utility.yul\":1698:1701   */\n      dup4\n        /* \"#utility.yul\":1685:1715   */\n      calldatacopy\n        /* \"#utility.yul\":1749:1750   */\n      0x00\n        /* \"#utility.yul\":1740:1746   */\n      dup4\n        /* \"#utility.yul\":1735:1738   */\n      dup4\n        /* \"#utility.yul\":1731:1747   */\n      add\n        /* \"#utility.yul\":1724:1751   */\n      mstore\n        /* \"#utility.yul\":1610:1758   */\n      pop\n      pop\n      pop\n      jump\t// out\n        /* \"#utility.yul\":1764:2189   */\n    tag_50:\n        /* \"#utility.yul\":1842:1847   */\n      0x00\n        /* \"#utility.yul\":1867:1933   */\n      tag_97\n        /* \"#utility.yul\":1883:1932   */\n      tag_98\n        /* \"#utility.yul\":1925:1931   */\n      dup5\n        /* \"#utility.yul\":1883:1932   */\n      tag_48\n      jump\t// in\n    tag_98:\n        /* \"#utility.yul\":1867:1933   */\n      tag_47\n      jump\t// in\n    tag_97:\n        /* \"#utility.yul\":1858:1933   */\n      swap1\n      pop\n        /* \"#utility.yul\":1956:1962   */\n      dup3\n        /* \"#utility.yul\":1949:1954   */\n      dup2\n        /* \"#utility.yul\":1942:1963   */\n      mstore\n        /* \"#utility.yul\":1994:1998   */\n      0x20\n        /* \"#utility.yul\":1987:1992   */\n      dup2\n        /* \"#utility.yul\":1983:1999   */\n      add\n        /* \"#utility.yul\":2032:2035   */\n      dup5\n        /* \"#utility.yul\":2023:2029   */\n      dup5\n        /* \"#utility.yul\":2018:2021   */\n      dup5\n        /* \"#utility.yul\":2014:2030   */\n      add\n        /* \"#utility.yul\":2011:2036   */\n      gt\n        /* \"#utility.yul\":2008:2120   */\n      iszero\n      tag_99\n      jumpi\n        /* \"#utility.yul\":2039:2118   */\n      tag_100\n      tag_43\n      jump\t// in\n    tag_100:\n        /* \"#utility.yul\":2008:2120   */\n    tag_99:\n        /* \"#utility.yul\":2129:2183   */\n      tag_101\n        /* \"#utility.yul\":2176:2182   */\n      dup5\n        /* \"#utility.yul\":2171:2174   */\n      dup3\n        /* \"#utility.yul\":2166:2169   */\n      dup6\n        /* \"#utility.yul\":2129:2183   */\n      tag_49\n      jump\t// in\n    tag_101:\n        /* \"#utility.yul\":1848:2189   */\n      pop\n        /* \"#utility.yul\":1764:2189   */\n      swap4\n      swap3\n      pop\n      pop\n      pop\n      jump\t// out\n        /* \"#utility.yul\":2209:2549   */\n    tag_51:\n        /* \"#utility.yul\":2265:2270   */\n      0x00\n        /* \"#utility.yul\":2314:2317   */\n      dup3\n        /* \"#utility.yul\":2307:2311   */\n      0x1f\n        /* \"#utility.yul\":2299:2305   */\n      dup4\n        /* \"#utility.yul\":2295:2312   */\n      add\n        /* \"#utility.yul\":2291:2318   */\n      slt\n        /* \"#utility.yul\":2281:2403   */\n      tag_103\n      jumpi\n        /* \"#utility.yul\":2322:2401   */\n      tag_104\n      tag_42\n      jump\t// in\n    tag_104:\n        /* \"#utility.yul\":2281:2403   */\n    tag_103:\n        /* \"#utility.yul\":2439:2445   */\n      dup2\n        /* \"#utility.yul\":2426:2446   */\n      calldataload\n        /* \"#utility.yul\":2464:2543   */\n      tag_105\n        /* \"#utility.yul\":2539:2542   */\n      dup5\n        /* \"#utility.yul\":2531:2537   */\n      dup3\n        /* \"#utility.yul\":2524:2528   */\n      0x20\n        /* \"#utility.yul\":2516:2522   */\n      dup7\n        /* \"#utility.yul\":2512:2529   */\n      add\n        /* \"#utility.yul\":2464:2543   */\n      tag_50\n      jump\t// in\n    tag_105:\n        /* \"#utility.yul\":2455:2543   */\n      swap2\n      pop\n        /* \"#utility.yul\":2271:2549   */\n      pop\n        /* \"#utility.yul\":2209:2549   */\n      swap3\n      swap2\n      pop\n      pop\n      jump\t// out\n        /* \"#utility.yul\":2555:2632   */\n    tag_52:\n        /* \"#utility.yul\":2592:2599   */\n      0x00\n        /* \"#utility.yul\":2621:2626   */\n      dup2\n        /* \"#utility.yul\":2610:2626   */\n      swap1\n      pop\n        /* \"#utility.yul\":2555:2632   */\n      swap2\n      swap1\n      pop\n      jump\t// out\n        /* \"#utility.yul\":2638:2760   */\n    tag_53:\n        /* \"#utility.yul\":2711:2735   */\n      tag_108\n        /* \"#utility.yul\":2729:2734   */\n      dup2\n        /* \"#utility.yul\":2711:2735   */\n      tag_52\n      jump\t// in\n    tag_108:\n        /* \"#utility.yul\":2704:2709   */\n      dup2\n        /* \"#utility.yul\":2701:2736   */\n      eq\n        /* \"#utility.yul\":2691:2754   */\n      tag_109\n      jumpi\n        /* \"#utility.yul\":2750:2751   */\n      0x00\n        /* \"#utility.yul\":2747:2748   */\n      0x00\n        /* \"#utility.yul\":2740:2752   */\n      revert\n        /* \"#utility.yul\":2691:2754   */\n    tag_109:\n        /* \"#utility.yul\":2638:2760   */\n      pop\n      jump\t// out\n        /* \"#utility.yul\":2766:2905   */\n    tag_54:\n        /* \"#utility.yul\":2812:2817   */\n      0x00\n        /* \"#utility.yul\":2850:2856   */\n      dup2\n        /* \"#utility.yul\":2837:2857   */\n      calldataload\n        /* \"#utility.yul\":2828:2857   */\n      swap1\n      pop\n        /* \"#utility.yul\":2866:2899   */\n      tag_111\n        /* \"#utility.yul\":2893:2898   */\n      dup2\n        /* \"#utility.yul\":2866:2899   */\n      tag_53\n      jump\t// in\n    tag_111:\n        /* \"#utility.yul\":2766:2905   */\n      swap3\n      swap2\n      pop\n      pop\n      jump\t// out\n        /* \"#utility.yul\":2911:4216   */\n    tag_7:\n        /* \"#utility.yul\":3027:3033   */\n      0x00\n        /* \"#utility.yul\":3035:3041   */\n      0x00\n        /* \"#utility.yul\":3043:3049   */\n      0x00\n        /* \"#utility.yul\":3051:3057   */\n      0x00\n        /* \"#utility.yul\":3100:3103   */\n      0x80\n        /* \"#utility.yul\":3088:3097   */\n      dup6\n        /* \"#utility.yul\":3079:3086   */\n      dup8\n        /* \"#utility.yul\":3075:3098   */\n      sub\n        /* \"#utility.yul\":3071:3104   */\n      slt\n        /* \"#utility.yul\":3068:3188   */\n      iszero\n      tag_113\n      jumpi\n        /* \"#utility.yul\":3107:3186   */\n      tag_114\n      tag_40\n      jump\t// in\n    tag_114:\n        /* \"#utility.yul\":3068:3188   */\n    tag_113:\n        /* \"#utility.yul\":3255:3256   */\n      0x00\n        /* \"#utility.yul\":3244:3253   */\n      dup6\n        /* \"#utility.yul\":3240:3257   */\n      add\n        /* \"#utility.yul\":3227:3258   */\n      calldataload\n        /* \"#utility.yul\":3285:3303   */\n      0xffffffffffffffff\n        /* \"#utility.yul\":3277:3283   */\n      dup2\n        /* \"#utility.yul\":3274:3304   */\n      gt\n        /* \"#utility.yul\":3271:3388   */\n      iszero\n      tag_115\n      jumpi\n        /* \"#utility.yul\":3307:3386   */\n      tag_116\n      tag_41\n      jump\t// in\n    tag_116:\n        /* \"#utility.yul\":3271:3388   */\n    tag_115:\n        /* \"#utility.yul\":3412:3475   */\n      tag_117\n        /* \"#utility.yul\":3467:3474   */\n      dup8\n        /* \"#utility.yul\":3458:3464   */\n      dup3\n        /* \"#utility.yul\":3447:3456   */\n      dup9\n        /* \"#utility.yul\":3443:3465   */\n      add\n        /* \"#utility.yul\":3412:3475   */\n      tag_51\n      jump\t// in\n    tag_117:\n        /* \"#utility.yul\":3402:3475   */\n      swap5\n      pop\n        /* \"#utility.yul\":3198:3485   */\n      pop\n        /* \"#utility.yul\":3552:3554   */\n      0x20\n        /* \"#utility.yul\":3541:3550   */\n      dup6\n        /* \"#utility.yul\":3537:3555   */\n      add\n        /* \"#utility.yul\":3524:3556   */\n      calldataload\n        /* \"#utility.yul\":3583:3601   */\n      0xffffffffffffffff\n        /* \"#utility.yul\":3575:3581   */\n      dup2\n        /* \"#utility.yul\":3572:3602   */\n      gt\n        /* \"#utility.yul\":3569:3686   */\n      iszero\n      tag_118\n      jumpi\n        /* \"#utility.yul\":3605:3684   */\n      tag_119\n      tag_41\n      jump\t// in\n    tag_119:\n        /* \"#utility.yul\":3569:3686   */\n    tag_118:\n        /* \"#utility.yul\":3710:3773   */\n      tag_120\n        /* \"#utility.yul\":3765:3772   */\n      dup8\n        /* \"#utility.yul\":3756:3762   */\n      dup3\n        /* \"#utility.yul\":3745:3754   */\n      dup9\n        /* \"#utility.yul\":3741:3763   */\n      add\n        /* \"#utility.yul\":3710:3773   */\n      tag_51\n      jump\t// in\n    tag_120:\n        /* \"#utility.yul\":3700:3773   */\n      swap4\n      pop\n        /* \"#utility.yul\":3495:3783   */\n      pop\n        /* \"#utility.yul\":3822:3824   */\n      0x40\n        /* \"#utility.yul\":3848:3901   */\n      tag_121\n        /* \"#utility.yul\":3893:3900   */\n      dup8\n        /* \"#utility.yul\":3884:3890   */\n      dup3\n        /* \"#utility.yul\":3873:3882   */\n      dup9\n        /* \"#utility.yul\":3869:3891   */\n      add\n        /* \"#utility.yul\":3848:3901   */\n      tag_54\n      jump\t// in\n    tag_121:\n        /* \"#utility.yul\":3838:3901   */\n      swap3\n      pop\n        /* \"#utility.yul\":3793:3911   */\n      pop\n        /* \"#utility.yul\":3978:3980   */\n      0x60\n        /* \"#utility.yul\":3967:3976   */\n      dup6\n        /* \"#utility.yul\":3963:3981   */\n      add\n        /* \"#utility.yul\":3950:3982   */\n      calldataload\n        /* \"#utility.yul\":4009:4027   */\n      0xffffffffffffffff\n        /* \"#utility.yul\":4001:4007   */\n      dup2\n        /* \"#utility.yul\":3998:4028   */\n      gt\n        /* \"#utility.yul\":3995:4112   */\n      iszero\n      tag_122\n      jumpi\n        /* \"#utility.yul\":4031:4110   */\n      tag_123\n      tag_41\n      jump\t// in\n    tag_123:\n        /* \"#utility.yul\":3995:4112   */\n    tag_122:\n        /* \"#utility.yul\":4136:4199   */\n      tag_124\n        /* \"#utility.yul\":4191:4198   */\n      dup8\n        /* \"#utility.yul\":4182:4188   */\n      dup3\n        /* \"#utility.yul\":4171:4180   */\n      dup9\n        /* \"#utility.yul\":4167:4189   */\n      add\n        /* \"#utility.yul\":4136:4199   */\n      tag_51\n      jump\t// in\n    tag_124:\n        /* \"#utility.yul\":4126:4199   */\n      swap2\n      pop\n        /* \"#utility.yul\":3921:4209   */\n      pop\n        /* \"#utility.yul\":2911:4216   */\n      swap3\n      swap6\n      swap2\n      swap5\n      pop\n      swap3\n      pop\n      jump\t// out\n        /* \"#utility.yul\":4222:4551   */\n    tag_11:\n        /* \"#utility.yul\":4281:4287   */\n      0x00\n        /* \"#utility.yul\":4330:4332   */\n      0x20\n        /* \"#utility.yul\":4318:4327   */\n      dup3\n        /* \"#utility.yul\":4309:4316   */\n      dup5\n        /* \"#utility.yul\":4305:4328   */\n      sub\n        /* \"#utility.yul\":4301:4333   */\n      slt\n        /* \"#utility.yul\":4298:4417   */\n      iszero\n      tag_126\n      jumpi\n        /* \"#utility.yul\":4336:4415   */\n      tag_127\n      tag_40\n      jump\t// in\n    tag_127:\n        /* \"#utility.yul\":4298:4417   */\n    tag_126:\n        /* \"#utility.yul\":4456:4457   */\n      0x00\n        /* \"#utility.yul\":4481:4534   */\n      tag_128\n        /* \"#utility.yul\":4526:4533   */\n      dup5\n        /* \"#utility.yul\":4517:4523   */\n      dup3\n        /* \"#utility.yul\":4506:4515   */\n      dup6\n        /* \"#utility.yul\":4502:4524   */\n      add\n        /* \"#utility.yul\":4481:4534   */\n      tag_54\n      jump\t// in\n    tag_128:\n        /* \"#utility.yul\":4471:4534   */\n      swap2\n      pop\n        /* \"#utility.yul\":4427:4544   */\n      pop\n        /* \"#utility.yul\":4222:4551   */\n      swap3\n      swap2\n      pop\n      pop\n      jump\t// out\n        /* \"#utility.yul\":4557:4656   */\n    tag_55:\n        /* \"#utility.yul\":4609:4615   */\n      0x00\n        /* \"#utility.yul\":4643:4648   */\n      dup2\n        /* \"#utility.yul\":4637:4649   */\n      mload\n        /* \"#utility.yul\":4627:4649   */\n      swap1\n      pop\n        /* \"#utility.yul\":4557:4656   */\n      swap2\n      swap1\n      pop\n      jump\t// out\n        /* \"#utility.yul\":4662:4831   */\n    tag_56:\n        /* \"#utility.yul\":4746:4757   */\n      0x00\n        /* \"#utility.yul\":4780:4786   */\n      dup3\n        /* \"#utility.yul\":4775:4778   */\n      dup3\n        /* \"#utility.yul\":4768:4787   */\n      mstore\n        /* \"#utility.yul\":4820:4824   */\n      0x20\n        /* \"#utility.yul\":4815:4818   */\n      dup3\n        /* \"#utility.yul\":4811:4825   */\n      add\n        /* \"#utility.yul\":4796:4825   */\n      swap1\n      pop\n        /* \"#utility.yul\":4662:4831   */\n      swap3\n      swap2\n      pop\n      pop\n      jump\t// out\n        /* \"#utility.yul\":4837:4976   */\n    tag_57:\n        /* \"#utility.yul\":4926:4932   */\n      dup3\n        /* \"#utility.yul\":4921:4924   */\n      dup2\n        /* \"#utility.yul\":4916:4919   */\n      dup4\n        /* \"#utility.yul\":4910:4933   */\n      mcopy\n        /* \"#utility.yul\":4967:4968   */\n      0x00\n        /* \"#utility.yul\":4958:4964   */\n      dup4\n        /* \"#utility.yul\":4953:4956   */\n      dup4\n        /* \"#utility.yul\":4949:4965   */\n      add\n        /* \"#utility.yul\":4942:4969   */\n      mstore\n        /* \"#utility.yul\":4837:4976   */\n      pop\n      pop\n      pop\n      jump\t// out\n        /* \"#utility.yul\":4982:5359   */\n    tag_58:\n        /* \"#utility.yul\":5070:5073   */\n      0x00\n        /* \"#utility.yul\":5098:5137   */\n      tag_133\n        /* \"#utility.yul\":5131:5136   */\n      dup3\n        /* \"#utility.yul\":5098:5137   */\n      tag_55\n      jump\t// in\n    tag_133:\n        /* \"#utility.yul\":5153:5224   */\n      tag_134\n        /* \"#utility.yul\":5217:5223   */\n      dup2\n        /* \"#utility.yul\":5212:5215   */\n      dup6\n        /* \"#utility.yul\":5153:5224   */\n      tag_56\n      jump\t// in\n    tag_134:\n        /* \"#utility.yul\":5146:5224   */\n      swap4\n      pop\n        /* \"#utility.yul\":5233:5298   */\n      tag_135\n        /* \"#utility.yul\":5291:5297   */\n      dup2\n        /* \"#utility.yul\":5286:5289   */\n      dup6\n        /* \"#utility.yul\":5279:5283   */\n      0x20\n        /* \"#utility.yul\":5272:5277   */\n      dup7\n        /* \"#utility.yul\":5268:5284   */\n      add\n        /* \"#utility.yul\":5233:5298   */\n      tag_57\n      jump\t// in\n    tag_135:\n        /* \"#utility.yul\":5323:5352   */\n      tag_136\n        /* \"#utility.yul\":5345:5351   */\n      dup2\n        /* \"#utility.yul\":5323:5352   */\n      tag_44\n      jump\t// in\n    tag_136:\n        /* \"#utility.yul\":5318:5321   */\n      dup5\n        /* \"#utility.yul\":5314:5353   */\n      add\n        /* \"#utility.yul\":5307:5353   */\n      swap2\n      pop\n        /* \"#utility.yul\":5074:5359   */\n      pop\n        /* \"#utility.yul\":4982:5359   */\n      swap3\n      swap2\n      pop\n      pop\n      jump\t// out\n        /* \"#utility.yul\":5365:5483   */\n    tag_59:\n        /* \"#utility.yul\":5452:5476   */\n      tag_138\n        /* \"#utility.yul\":5470:5475   */\n      dup2\n        /* \"#utility.yul\":5452:5476   */\n      tag_52\n      jump\t// in\n    tag_138:\n        /* \"#utility.yul\":5447:5450   */\n      dup3\n        /* \"#utility.yul\":5440:5477   */\n      mstore\n        /* \"#utility.yul\":5365:5483   */\n      pop\n      pop\n      jump\t// out\n        /* \"#utility.yul\":5489:6315   */\n    tag_14:\n        /* \"#utility.yul\":5726:5730   */\n      0x00\n        /* \"#utility.yul\":5764:5767   */\n      0x80\n        /* \"#utility.yul\":5753:5762   */\n      dup3\n        /* \"#utility.yul\":5749:5768   */\n      add\n        /* \"#utility.yul\":5741:5768   */\n      swap1\n      pop\n        /* \"#utility.yul\":5814:5823   */\n      dup2\n        /* \"#utility.yul\":5808:5812   */\n      dup2\n        /* \"#utility.yul\":5804:5824   */\n      sub\n        /* \"#utility.yul\":5800:5801   */\n      0x00\n        /* \"#utility.yul\":5789:5798   */\n      dup4\n        /* \"#utility.yul\":5785:5802   */\n      add\n        /* \"#utility.yul\":5778:5825   */\n      mstore\n        /* \"#utility.yul\":5842:5920   */\n      tag_140\n        /* \"#utility.yul\":5915:5919   */\n      dup2\n        /* \"#utility.yul\":5906:5912   */\n      dup8\n        /* \"#utility.yul\":5842:5920   */\n      tag_58\n      jump\t// in\n    tag_140:\n        /* \"#utility.yul\":5834:5920   */\n      swap1\n      pop\n        /* \"#utility.yul\":5967:5976   */\n      dup2\n        /* \"#utility.yul\":5961:5965   */\n      dup2\n        /* \"#utility.yul\":5957:5977   */\n      sub\n        /* \"#utility.yul\":5952:5954   */\n      0x20\n        /* \"#utility.yul\":5941:5950   */\n      dup4\n        /* \"#utility.yul\":5937:5955   */\n      add\n        /* \"#utility.yul\":5930:5978   */\n      mstore\n        /* \"#utility.yul\":5995:6073   */\n      tag_141\n        /* \"#utility.yul\":6068:6072   */\n      dup2\n        /* \"#utility.yul\":6059:6065   */\n      dup7\n        /* \"#utility.yul\":5995:6073   */\n      tag_58\n      jump\t// in\n    tag_141:\n        /* \"#utility.yul\":5987:6073   */\n      swap1\n      pop\n        /* \"#utility.yul\":6083:6155   */\n      tag_142\n        /* \"#utility.yul\":6151:6153   */\n      0x40\n        /* \"#utility.yul\":6140:6149   */\n      dup4\n        /* \"#utility.yul\":6136:6154   */\n      add\n        /* \"#utility.yul\":6127:6133   */\n      dup6\n        /* \"#utility.yul\":6083:6155   */\n      tag_59\n      jump\t// in\n    tag_142:\n        /* \"#utility.yul\":6202:6211   */\n      dup2\n        /* \"#utility.yul\":6196:6200   */\n      dup2\n        /* \"#utility.yul\":6192:6212   */\n      sub\n        /* \"#utility.yul\":6187:6189   */\n      0x60\n        /* \"#utility.yul\":6176:6185   */\n      dup4\n        /* \"#utility.yul\":6172:6190   */\n      add\n        /* \"#utility.yul\":6165:6213   */\n      mstore\n        /* \"#utility.yul\":6230:6308   */\n      tag_143\n        /* \"#utility.yul\":6303:6307   */\n      dup2\n        /* \"#utility.yul\":6294:6300   */\n      dup5\n        /* \"#utility.yul\":6230:6308   */\n      tag_58\n      jump\t// in\n    tag_143:\n        /* \"#utility.yul\":6222:6308   */\n      swap1\n      pop\n        /* \"#utility.yul\":5489:6315   */\n      swap6\n      swap5\n      pop\n      pop\n      pop\n      pop\n      pop\n      jump\t// out\n        /* \"#utility.yul\":6321:6501   */\n    tag_60:\n        /* \"#utility.yul\":6369:6446   */\n      0x4e487b7100000000000000000000000000000000000000000000000000000000\n        /* \"#utility.yul\":6366:6367   */\n      0x00\n        /* \"#utility.yul\":6359:6447   */\n      mstore\n        /* \"#utility.yul\":6466:6470   */\n      0x22\n        /* \"#utility.yul\":6463:6464   */\n      0x04\n        /* \"#utility.yul\":6456:6471   */\n      mstore\n        /* \"#utility.yul\":6490:6494   */\n      0x24\n        /* \"#utility.yul\":6487:6488   */\n      0x00\n        /* \"#utility.yul\":6480:6495   */\n      revert\n        /* \"#utility.yul\":6507:6827   */\n    tag_24:\n        /* \"#utility.yul\":6551:6557   */\n      0x00\n        /* \"#utility.yul\":6588:6589   */\n      0x02\n        /* \"#utility.yul\":6582:6586   */\n      dup3\n        /* \"#utility.yul\":6578:6590   */\n      div\n        /* \"#utility.yul\":6568:6590   */\n      swap1\n      pop\n        /* \"#utility.yul\":6635:6636   */\n      0x01\n        /* \"#utility.yul\":6629:6633   */\n      dup3\n        /* \"#utility.yul\":6625:6637   */\n      and\n        /* \"#utility.yul\":6656:6674   */\n      dup1\n        /* \"#utility.yul\":6646:6727   */\n      tag_146\n      jumpi\n        /* \"#utility.yul\":6712:6716   */\n      0x7f\n        /* \"#utility.yul\":6704:6710   */\n      dup3\n        /* \"#utility.yul\":6700:6717   */\n      and\n        /* \"#utility.yul\":6690:6717   */\n      swap2\n      pop\n        /* \"#utility.yul\":6646:6727   */\n    tag_146:\n        /* \"#utility.yul\":6774:6776   */\n      0x20\n        /* \"#utility.yul\":6766:6772   */\n      dup3\n        /* \"#utility.yul\":6763:6777   */\n      lt\n        /* \"#utility.yul\":6743:6761   */\n      dup2\n        /* \"#utility.yul\":6740:6778   */\n      sub\n        /* \"#utility.yul\":6737:6821   */\n      tag_147\n      jumpi\n        /* \"#utility.yul\":6793:6811   */\n      tag_148\n      tag_60\n      jump\t// in\n    tag_148:\n        /* \"#utility.yul\":6737:6821   */\n    tag_147:\n        /* \"#utility.yul\":6558:6827   */\n      pop\n        /* \"#utility.yul\":6507:6827   */\n      swap2\n      swap1\n      pop\n      jump\t// out\n        /* \"#utility.yul\":6833:6974   */\n    tag_61:\n        /* \"#utility.yul\":6882:6886   */\n      0x00\n        /* \"#utility.yul\":6905:6908   */\n      dup2\n        /* \"#utility.yul\":6897:6908   */\n      swap1\n      pop\n        /* \"#utility.yul\":6928:6931   */\n      dup2\n        /* \"#utility.yul\":6925:6926   */\n      0x00\n        /* \"#utility.yul\":6918:6932   */\n      mstore\n        /* \"#utility.yul\":6962:6966   */\n      0x20\n        /* \"#utility.yul\":6959:6960   */\n      0x00\n        /* \"#utility.yul\":6949:6967   */\n      keccak256\n        /* \"#utility.yul\":6941:6967   */\n      swap1\n      pop\n        /* \"#utility.yul\":6833:6974   */\n      swap2\n      swap1\n      pop\n      jump\t// out\n        /* \"#utility.yul\":6980:7073   */\n    tag_62:\n        /* \"#utility.yul\":7017:7023   */\n      0x00\n        /* \"#utility.yul\":7064:7066   */\n      0x20\n        /* \"#utility.yul\":7059:7061   */\n      0x1f\n        /* \"#utility.yul\":7052:7057   */\n      dup4\n        /* \"#utility.yul\":7048:7062   */\n      add\n        /* \"#utility.yul\":7044:7067   */\n      div\n        /* \"#utility.yul\":7034:7067   */\n      swap1\n      pop\n        /* \"#utility.yul\":6980:7073   */\n      swap2\n      swap1\n      pop\n      jump\t// out\n        /* \"#utility.yul\":7079:7186   */\n    tag_63:\n        /* \"#utility.yul\":7123:7131   */\n      0x00\n        /* \"#utility.yul\":7173:7178   */\n      dup3\n        /* \"#utility.yul\":7167:7171   */\n      dup3\n        /* \"#utility.yul\":7163:7179   */\n      shl\n        /* \"#utility.yul\":7142:7179   */\n      swap1\n      pop\n        /* \"#utility.yul\":7079:7186   */\n      swap3\n      swap2\n      pop\n      pop\n      jump\t// out\n        /* \"#utility.yul\":7192:7585   */\n    tag_64:\n        /* \"#utility.yul\":7261:7267   */\n      0x00\n        /* \"#utility.yul\":7311:7312   */\n      0x08\n        /* \"#utility.yul\":7299:7309   */\n      dup4\n        /* \"#utility.yul\":7295:7313   */\n      mul\n        /* \"#utility.yul\":7334:7431   */\n      tag_153\n        /* \"#utility.yul\":7364:7430   */\n      0xffffffffffffffffffffffffffffffffffffffffffffffffffffffffffffffff\n        /* \"#utility.yul\":7353:7362   */\n      dup3\n        /* \"#utility.yul\":7334:7431   */\n      tag_63\n      jump\t// in\n    tag_153:\n        /* \"#utility.yul\":7452:7491   */\n      tag_154\n        /* \"#utility.yul\":7482:7490   */\n      dup7\n        /* \"#utility.yul\":7471:7480   */\n      dup4\n        /* \"#utility.yul\":7452:7491   */\n      tag_63\n      jump\t// in\n    tag_154:\n        /* \"#utility.yul\":7440:7491   */\n      swap6\n      pop\n        /* \"#utility.yul\":7524:7528   */\n      dup1\n        /* \"#utility.yul\":7520:7529   */\n      not\n        /* \"#utility.yul\":7513:7518   */\n      dup5\n        /* \"#utility.yul\":7509:7530   */\n      and\n        /* \"#utility.yul\":7500:7530   */\n      swap4\n      pop\n        /* \"#utility.yul\":7573:7577   */\n      dup1\n        /* \"#utility.yul\":7563:7571   */\n      dup7\n        /* \"#utility.yul\":7559:7578   */\n      and\n        /* \"#utility.yul\":7552:7557   */\n      dup5\n        /* \"#utility.yul\":7549:7579   */\n      or\n        /* \"#utility.yul\":7539:7579   */\n      swap3\n      pop\n        /* \"#utility.yul\":7268:7585   */\n      pop\n      pop\n        /* \"#utility.yul\":7192:7585   */\n      swap4\n      swap3\n      pop\n      pop\n      pop\n      jump\t// out\n        /* \"#utility.yul\":7591:7651   */\n    tag_65:\n        /* \"#utility.yul\":7619:7622   */\n      0x00\n        /* \"#utility.yul\":7640:7645   */\n      dup2\n        /* \"#utility.yul\":7633:7645   */\n      swap1\n      pop\n        /* \"#utility.yul\":7591:7651   */\n      swap2\n      swap1\n      pop\n      jump\t// out\n        /* \"#utility.yul\":7657:7799   */\n    tag_66:\n        /* \"#utility.yul\":7707:7716   */\n      0x00\n        /* \"#utility.yul\":7740:7793   */\n      tag_157\n        /* \"#utility.yul\":7758:7792   */\n      tag_158\n        /* \"#utility.yul\":7767:7791   */\n      tag_159\n        /* \"#utility.yul\":7785:7790   */\n      dup5\n        /* \"#utility.yul\":7767:7791   */\n      tag_52\n      jump\t// in\n    tag_159:\n        /* \"#utility.yul\":7758:7792   */\n      tag_65\n      jump\t// in\n    tag_158:\n        /* \"#utility.yul\":7740:7793   */\n      tag_52\n      jump\t// in\n    tag_157:\n        /* \"#utility.yul\":7727:7793   */\n      swap1\n      pop\n        /* \"#utility.yul\":7657:7799   */\n      swap2\n      swap1\n      pop\n      jump\t// out\n        /* \"#utility.yul\":7805:7880   */\n    tag_67:\n        /* \"#utility.yul\":7848:7851   */\n      0x00\n        /* \"#utility.yul\":7869:7874   */\n      dup2\n        /* \"#utility.yul\":7862:7874   */\n      swap1\n      pop\n        /* \"#utility.yul\":7805:7880   */\n      swap2\n      swap1\n      pop\n      jump\t// out\n        /* \"#utility.yul\":7886:8155   */\n    tag_68:\n        /* \"#utility.yul\":7996:8035   */\n      tag_162\n        /* \"#utility.yul\":8027:8034   */\n      dup4\n        /* \"#utility.yul\":7996:8035   */\n      tag_66\n      jump\t// in\n    tag_162:\n        /* \"#utility.yul\":8057:8148   */\n      tag_163\n        /* \"#utility.yul\":8106:8147   */\n      tag_164\n        /* \"#utility.yul\":8130:8146   */\n      dup3\n        /* \"#utility.yul\":8106:8147   */\n      tag_67\n      jump\t// in\n    tag_164:\n        /* \"#utility.yul\":8098:8104   */\n      dup5\n        /* \"#utility.yul\":8091:8095   */\n      dup5\n        /* \"#utility.yul\":8085:8096   */\n      sload\n        /* \"#utility.yul\":8057:8148   */\n      tag_64\n      jump\t// in\n    tag_163:\n        /* \"#utility.yul\":8051:8055   */\n      dup3\n        /* \"#utility.yul\":8044:8149   */\n      sstore\n        /* \"#utility.yul\":7962:8155   */\n      pop\n        /* \"#utility.yul\":7886:8155   */\n      pop\n      pop\n      pop\n      jump\t// out\n        /* \"#utility.yul\":8161:8234   */\n    tag_69:\n        /* \"#utility.yul\":8206:8209   */\n      0x00\n        /* \"#utility.yul\":8227:8228   */\n      0x00\n        /* \"#utility.yul\":8220:8228   */\n      swap1\n      pop\n        /* \"#utility.yul\":8161:8234   */\n      swap1\n      jump\t// out\n        /* \"#utility.yul\":8240:8429   */\n    tag_70:\n        /* \"#utility.yul\":8317:8349   */\n      tag_167\n      tag_69\n      jump\t// in\n    tag_167:\n        /* \"#utility.yul\":8358:8423   */\n      tag_168\n        /* \"#utility.yul\":8416:8422   */\n      dup2\n        /* \"#utility.yul\":8408:8414   */\n      dup5\n        /* \"#utility.yul\":8402:8406   */\n      dup5\n        /* \"#utility.yul\":8358:8423   */\n      tag_68\n      jump\t// in\n    tag_168:\n        /* \"#utility.yul\":8293:8429   */\n      pop\n        /* \"#utility.yul\":8240:8429   */\n      pop\n      pop\n      jump\t// out\n        /* \"#utility.yul\":8435:8621   */\n    tag_71:\n        /* \"#utility.yul\":8495:8615   */\n    tag_170:\n        /* \"#utility.yul\":8512:8515   */\n      dup2\n        /* \"#utility.yul\":8505:8510   */\n      dup2\n        /* \"#utility.yul\":8502:8516   */\n      lt\n        /* \"#utility.yul\":8495:8615   */\n      iszero\n      tag_172\n      jumpi\n        /* \"#utility.yul\":8566:8605   */\n      tag_173\n        /* \"#utility.yul\":8603:8604   */\n      0x00\n        /* \"#utility.yul\":8596:8601   */\n      dup3\n        /* \"#utility.yul\":8566:8605   */\n      tag_70\n      jump\t// in\n    tag_173:\n        /* \"#utility.yul\":8539:8540   */\n      0x01\n        /* \"#utility.yul\":8532:8537   */\n      dup2\n        /* \"#utility.yul\":8528:8541   */\n      add\n        /* \"#utility.yul\":8519:8541   */\n      swap1\n      pop\n        /* \"#utility.yul\":8495:8615   */\n      jump(tag_170)\n    tag_172:\n        /* \"#utility.yul\":8435:8621   */\n      pop\n      pop\n      jump\t// out\n        /* \"#utility.yul\":8627:9170   */\n    tag_72:\n        /* \"#utility.yul\":8728:8730   */\n      0x1f\n        /* \"#utility.yul\":8723:8726   */\n      dup3\n        /* \"#utility.yul\":8720:8731   */\n      gt\n        /* \"#utility.yul\":8717:9163   */\n      iszero\n      tag_175\n      jumpi\n        /* \"#utility.yul\":8762:8800   */\n      tag_176\n        /* \"#utility.yul\":8794:8799   */\n      dup2\n        /* \"#utility.yul\":8762:8800   */\n      tag_61\n      jump\t// in\n    tag_176:\n        /* \"#utility.yul\":8846:8875   */\n      tag_177\n        /* \"#utility.yul\":8864:8874   */\n      dup5\n        /* \"#utility.yul\":8846:8875   */\n      tag_62\n      jump\t// in\n    tag_177:\n        /* \"#utility.yul\":8836:8844   */\n      dup2\n        /* \"#utility.yul\":8832:8876   */\n      add\n        /* \"#utility.yul\":9029:9031   */\n      0x20\n        /* \"#utility.yul\":9017:9027   */\n      dup6\n        /* \"#utility.yul\":9014:9032   */\n      lt\n        /* \"#utility.yul\":9011:9060   */\n      iszero\n      tag_178\n      jumpi\n        /* \"#utility.yul\":9050:9058   */\n      dup2\n        /* \"#utility.yul\":9035:9058   */\n      swap1\n      pop\n        /* \"#utility.yul\":9011:9060   */\n    tag_178:\n        /* \"#utility.yul\":9073:9153   */\n      tag_179\n        /* \"#utility.yul\":9129:9151   */\n      tag_180\n        /* \"#utility.yul\":9147:9150   */\n      dup6\n        /* \"#utility.yul\":9129:9151   */\n      tag_62\n      jump\t// in\n    tag_180:\n        /* \"#utility.yul\":9119:9127   */\n      dup4\n        /* \"#utility.yul\":9115:9152   */\n      add\n        /* \"#utility.yul\":9102:9113   */\n      dup3\n        /* \"#utility.yul\":9073:9153   */\n      tag_71\n      jump\t// in\n    tag_179:\n        /* \"#utility.yul\":8732:9163   */\n      pop\n      pop\n        /* \"#utility.yul\":8717:9163   */\n    tag_175:\n        /* \"#utility.yul\":8627:9170   */\n      pop\n      pop\n      pop\n      jump\t// out\n        /* \"#utility.yul\":9176:9293   */\n    tag_73:\n        /* \"#utility.yul\":9230:9238   */\n      0x00\n        /* \"#utility.yul\":9280:9285   */\n      dup3\n        /* \"#utility.yul\":9274:9278   */\n      dup3\n        /* \"#utility.yul\":9270:9286   */\n      shr\n        /* \"#utility.yul\":9249:9286   */\n      swap1\n      pop\n        /* \"#utility.yul\":9176:9293   */\n      swap3\n      swap2\n      pop\n      pop\n      jump\t// out\n        /* \"#utility.yul\":9299:9468   */\n    tag_74:\n        /* \"#utility.yul\":9343:9349   */\n      0x00\n        /* \"#utility.yul\":9376:9427   */\n      tag_183\n        /* \"#utility.yul\":9424:9425   */\n      0x00\n        /* \"#utility.yul\":9420:9426   */\n      not\n        /* \"#utility.yul\":9412:9417   */\n      dup5\n        /* \"#utility.yul\":9409:9410   */\n      0x08\n        /* \"#utility.yul\":9405:9418   */\n      mul\n        /* \"#utility.yul\":9376:9427   */\n      tag_73\n      jump\t// in\n    tag_183:\n        /* \"#utility.yul\":9372:9428   */\n      not\n        /* \"#utility.yul\":9457:9461   */\n      dup1\n        /* \"#utility.yul\":9451:9455   */\n      dup4\n        /* \"#utility.yul\":9447:9462   */\n      and\n        /* \"#utility.yul\":9437:9462   */\n      swap2\n      pop\n        /* \"#utility.yul\":9350:9468   */\n      pop\n        /* \"#utility.yul\":9299:9468   */\n      swap3\n      swap2\n      pop\n      pop\n      jump\t// out\n        /* \"#utility.yul\":9473:9768   */\n    tag_75:\n        /* \"#utility.yul\":9549:9553   */\n      0x00\n        /* \"#utility.yul\":9695:9724   */\n      tag_185\n        /* \"#utility.yul\":9720:9723   */\n      dup4\n        /* \"#utility.yul\":9714:9718   */\n      dup4\n        /* \"#utility.yul\":9695:9724   */\n      tag_74\n      jump\t// in\n    tag_185:\n        /* \"#utility.yul\":9687:9724   */\n      swap2\n      pop\n        /* \"#utility.yul\":9757:9760   */\n      dup3\n        /* \"#utility.yul\":9754:9755   */\n      0x02\n        /* \"#utility.yul\":9750:9761   */\n      mul\n        /* \"#utility.yul\":9744:9748   */\n      dup3\n        /* \"#utility.yul\":9741:9762   */\n      or\n        /* \"#utility.yul\":9733:9762   */\n      swap1\n      pop\n        /* \"#utility.yul\":9473:9768   */\n      swap3\n      swap2\n      pop\n      pop\n      jump\t// out\n        /* \"#utility.yul\":9773:11168   */\n    tag_18:\n        /* \"#utility.yul\":9890:9927   */\n      tag_187\n        /* \"#utility.yul\":9923:9926   */\n      dup3\n        /* \"#utility.yul\":9890:9927   */\n      tag_55\n      jump\t// in\n    tag_187:\n        /* \"#utility.yul\":9992:10010   */\n      0xffffffffffffffff\n        /* \"#utility.yul\":9984:9990   */\n      dup2\n        /* \"#utility.yul\":9981:10011   */\n      gt\n        /* \"#utility.yul\":9978:10034   */\n      iszero\n      tag_188\n      jumpi\n        /* \"#utility.yul\":10014:10032   */\n      tag_189\n      tag_45\n      jump\t// in\n    tag_189:\n        /* \"#utility.yul\":9978:10034   */\n    tag_188:\n        /* \"#utility.yul\":10058:10096   */\n      tag_190\n        /* \"#utility.yul\":10090:10094   */\n      dup3\n        /* \"#utility.yul\":10084:10095   */\n      sload\n        /* \"#utility.yul\":10058:10096   */\n      tag_24\n      jump\t// in\n    tag_190:\n        /* \"#utility.yul\":10143:10210   */\n      tag_191\n        /* \"#utility.yul\":10203:10209   */\n      dup3\n        /* \"#utility.yul\":10195:10201   */\n      dup3\n        /* \"#utility.yul\":10189:10193   */\n      dup6\n        /* \"#utility.yul\":10143:10210   */\n      tag_72\n      jump\t// in\n    tag_191:\n        /* \"#utility.yul\":10237:10238   */\n      0x00\n        /* \"#utility.yul\":10261:10265   */\n      0x20\n        /* \"#utility.yul\":10248:10265   */\n      swap1\n      pop\n        /* \"#utility.yul\":10293:10295   */\n      0x1f\n        /* \"#utility.yul\":10285:10291   */\n      dup4\n        /* \"#utility.yul\":10282:10296   */\n      gt\n        /* \"#utility.yul\":10310:10311   */\n      0x01\n        /* \"#utility.yul\":10305:10923   */\n      dup2\n      eq\n      tag_193\n      jumpi\n        /* \"#utility.yul\":10967:10968   */\n      0x00\n        /* \"#utility.yul\":10984:10990   */\n      dup5\n        /* \"#utility.yul\":10981:11058   */\n      iszero\n      tag_194\n      jumpi\n        /* \"#utility.yul\":11033:11042   */\n      dup3\n        /* \"#utility.yul\":11028:11031   */\n      dup8\n        /* \"#utility.yul\":11024:11043   */\n      add\n        /* \"#utility.yul\":11018:11044   */\n      mload\n        /* \"#utility.yul\":11009:11044   */\n      swap1\n      pop\n        /* \"#utility.yul\":10981:11058   */\n    tag_194:\n        /* \"#utility.yul\":11084:11151   */\n      tag_195\n        /* \"#utility.yul\":11144:11150   */\n      dup6\n        /* \"#utility.yul\":11137:11142   */\n      dup3\n        /* \"#utility.yul\":11084:11151   */\n      tag_75\n      jump\t// in\n    tag_195:\n        /* \"#utility.yul\":11078:11082   */\n      dup7\n        /* \"#utility.yul\":11071:11152   */\n      sstore\n        /* \"#utility.yul\":10940:11162   */\n      pop\n        /* \"#utility.yul\":10275:11162   */\n      jump(tag_192)\n        /* \"#utility.yul\":10305:10923   */\n    tag_193:\n        /* \"#utility.yul\":10357:10361   */\n      0x1f\n        /* \"#utility.yul\":10353:10362   */\n      not\n        /* \"#utility.yul\":10345:10351   */\n      dup5\n        /* \"#utility.yul\":10341:10363   */\n      and\n        /* \"#utility.yul\":10391:10428   */\n      tag_196\n        /* \"#utility.yul\":10423:10427   */\n      dup7\n        /* \"#utility.yul\":10391:10428   */\n      tag_61\n      jump\t// in\n    tag_196:\n        /* \"#utility.yul\":10450:10451   */\n      0x00\n        /* \"#utility.yul\":10464:10672   */\n    tag_197:\n        /* \"#utility.yul\":10478:10485   */\n      dup3\n        /* \"#utility.yul\":10475:10476   */\n      dup2\n        /* \"#utility.yul\":10472:10486   */\n      lt\n        /* \"#utility.yul\":10464:10672   */\n      iszero\n      tag_199\n      jumpi\n        /* \"#utility.yul\":10557:10566   */\n      dup5\n        /* \"#utility.yul\":10552:10555   */\n      dup10\n        /* \"#utility.yul\":10548:10567   */\n      add\n        /* \"#utility.yul\":10542:10568   */\n      mload\n        /* \"#utility.yul\":10534:10540   */\n      dup3\n        /* \"#utility.yul\":10527:10569   */\n      sstore\n        /* \"#utility.yul\":10608:10609   */\n      0x01\n        /* \"#utility.yul\":10600:10606   */\n      dup3\n        /* \"#utility.yul\":10596:10610   */\n      add\n        /* \"#utility.yul\":10586:10610   */\n      swap2\n      pop\n        /* \"#utility.yul\":10655:10657   */\n      0x20\n        /* \"#utility.yul\":10644:10653   */\n      dup6\n        /* \"#utility.yul\":10640:10658   */\n      add\n        /* \"#utility.yul\":10627:10658   */\n      swap5\n      pop\n        /* \"#utility.yul\":10501:10505   */\n      0x20\n        /* \"#utility.yul\":10498:10499   */\n      dup2\n        /* \"#utility.yul\":10494:10506   */\n      add\n        /* \"#utility.yul\":10489:10506   */\n      swap1\n      pop\n        /* \"#utility.yul\":10464:10672   */\n      jump(tag_197)\n    tag_199:\n        /* \"#utility.yul\":10700:10706   */\n      dup7\n        /* \"#utility.yul\":10691:10698   */\n      dup4\n        /* \"#utility.yul\":10688:10707   */\n      lt\n        /* \"#utility.yul\":10685:10864   */\n      iszero\n      tag_200\n      jumpi\n        /* \"#utility.yul\":10758:10767   */\n      dup5\n        /* \"#utility.yul\":10753:10756   */\n      dup10\n        /* \"#utility.yul\":10749:10768   */\n      add\n        /* \"#utility.yul\":10743:10769   */\n      mload\n        /* \"#utility.yul\":10801:10849   */\n      tag_201\n        /* \"#utility.yul\":10843:10847   */\n      0x1f\n        /* \"#utility.yul\":10835:10841   */\n      dup10\n        /* \"#utility.yul\":10831:10848   */\n      and\n        /* \"#utility.yul\":10820:10829   */\n      dup3\n        /* \"#utility.yul\":10801:10849   */\n      tag_74\n      jump\t// in\n    tag_201:\n        /* \"#utility.yul\":10793:10799   */\n      dup4\n        /* \"#utility.yul\":10786:10850   */\n      sstore\n        /* \"#utility.yul\":10708:10864   */\n      pop\n        /* \"#utility.yul\":10685:10864   */\n    tag_200:\n        /* \"#utility.yul\":10910:10911   */\n      0x01\n        /* \"#utility.yul\":10906:10907   */\n      0x02\n        /* \"#utility.yul\":10898:10904   */\n      dup9\n        /* \"#utility.yul\":10894:10908   */\n      mul\n        /* \"#utility.yul\":10890:10912   */\n      add\n        /* \"#utility.yul\":10884:10888   */\n      dup9\n        /* \"#utility.yul\":10877:10913   */\n      sstore\n        /* \"#utility.yul\":10312:10923   */\n      pop\n      pop\n      pop\n        /* \"#utility.yul\":10275:11162   */\n    tag_192:\n      pop\n        /* \"#utility.yul\":9865:11168   */\n      pop\n      pop\n      pop\n        /* \"#utility.yul\":9773:11168   */\n      pop\n      pop\n      jump\t// out\n\n    auxdata: 0xa2646970667358221220fa7da16cfc4b00435ee9ad97b333dcd0d602944f3af7f28faf06e7af570956e264736f6c634300081e0033\n}\n",
				"bytecode": {
					"linkReferences": {},
					"object": "6080604052348015600e575f5ffd5b5061091e8061001c5f395ff3fe608060405234801561000f575f5ffd5b5060043610610034575f3560e01c8063635a7e5414610038578063c0abda2a14610054575b5f5ffd5b610052600480360381019061004d9190610472565b610087565b005b61006e6004803603810190610069919061052a565b610126565b60405161007e94939291906105c4565b60405180910390f35b5f60405180608001604052808681526020018581526020018481526020018381525090505f81908060018154018082558091505060019003905f5260205f2090600402015f909190919091505f820151815f0190816100e69190610819565b5060208201518160010190816100fc9190610819565b5060408201518160020155606082015181600301908161011c9190610819565b5050505050505050565b5f8181548110610134575f80fd5b905f5260205f2090600402015f91509050805f01805461015390610649565b80601f016020809104026020016040519081016040528092919081815260200182805461017f90610649565b80156101ca5780601f106101a1576101008083540402835291602001916101ca565b820191905f5260205f20905b8154815290600101906020018083116101ad57829003601f168201915b5050505050908060010180546101df90610649565b80601f016020809104026020016040519081016040528092919081815260200182805461020b90610649565b80156102565780601f1061022d57610100808354040283529160200191610256565b820191905f5260205f20905b81548152906001019060200180831161023957829003601f168201915b50505050509080600201549080600301805461027190610649565b80601f016020809104026020016040519081016040528092919081815260200182805461029d90610649565b80156102e85780601f106102bf576101008083540402835291602001916102e8565b820191905f5260205f20905b8154815290600101906020018083116102cb57829003601f168201915b5050505050905084565b5f604051905090565b5f5ffd5b5f5ffd5b5f5ffd5b5f5ffd5b5f601f19601f8301169050919050565b7f4e487b71000000000000000000000000000000000000000000000000000000005f52604160045260245ffd5b6103518261030b565b810181811067ffffffffffffffff821117156103705761036f61031b565b5b80604052505050565b5f6103826102f2565b905061038e8282610348565b919050565b5f67ffffffffffffffff8211156103ad576103ac61031b565b5b6103b68261030b565b9050602081019050919050565b828183375f83830152505050565b5f6103e36103de84610393565b610379565b9050828152602081018484840111156103ff576103fe610307565b5b61040a8482856103c3565b509392505050565b5f82601f83011261042657610425610303565b5b81356104368482602086016103d1565b91505092915050565b5f819050919050565b6104518161043f565b811461045b575f5ffd5b50565b5f8135905061046c81610448565b92915050565b5f5f5f5f6080858703121561048a576104896102fb565b5b5f85013567ffffffffffffffff8111156104a7576104a66102ff565b5b6104b387828801610412565b945050602085013567ffffffffffffffff8111156104d4576104d36102ff565b5b6104e087828801610412565b93505060406104f18782880161045e565b925050606085013567ffffffffffffffff811115610512576105116102ff565b5b61051e87828801610412565b91505092959194509250565b5f6020828403121561053f5761053e6102fb565b5b5f61054c8482850161045e565b91505092915050565b5f81519050919050565b5f82825260208201905092915050565b8281835e5f83830152505050565b5f61058782610555565b610591818561055f565b93506105a181856020860161056f565b6105aa8161030b565b840191505092915050565b6105be8161043f565b82525050565b5f6080820190508181035f8301526105dc818761057d565b905081810360208301526105f0818661057d565b90506105ff60408301856105b5565b8181036060830152610611818461057d565b905095945050505050565b7f4e487b71000000000000000000000000000000000000000000000000000000005f52602260045260245ffd5b5f600282049050600182168061066057607f821691505b6020821081036106735761067261061c565b5b50919050565b5f819050815f5260205f209050919050565b5f6020601f8301049050919050565b5f82821b905092915050565b5f600883026106d57fffffffffffffffffffffffffffffffffffffffffffffffffffffffffffffffff8261069a565b6106df868361069a565b95508019841693508086168417925050509392505050565b5f819050919050565b5f61071a6107156107108461043f565b6106f7565b61043f565b9050919050565b5f819050919050565b61073383610700565b61074761073f82610721565b8484546106a6565b825550505050565b5f5f905090565b61075e61074f565b61076981848461072a565b505050565b5b8181101561078c576107815f82610756565b60018101905061076f565b5050565b601f8211156107d1576107a281610679565b6107ab8461068b565b810160208510156107ba578190505b6107ce6107c68561068b565b83018261076e565b50505b505050565b5f82821c905092915050565b5f6107f15f19846008026107d6565b1980831691505092915050565b5f61080983836107e2565b9150826002028217905092915050565b61082282610555565b67ffffffffffffffff81111561083b5761083a61031b565b5b6108458254610649565b610850828285610790565b5f60209050601f831160018114610881575f841561086f578287015190505b61087985826107fe565b8655506108e0565b601f19841661088f86610679565b5f5b828110156108b657848901518255600182019150602085019450602081019050610891565b868310156108d357848901516108cf601f8916826107e2565b8355505b6001600288020188555050505b50505050505056fea2646970667358221220fa7da16cfc4b00435ee9ad97b333dcd0d602944f3af7f28faf06e7af570956e264736f6c634300081e0033",
					"opcodes": "PUSH1 0x80 PUSH1 0x40 MSTORE CALLVALUE DUP1 ISZERO PUSH1 0xE JUMPI PUSH0 PUSH0 REVERT JUMPDEST POP PUSH2 0x91E DUP1 PUSH2 0x1C PUSH0 CODECOPY PUSH0 RETURN INVALID PUSH1 0x80 PUSH1 0x40 MSTORE CALLVALUE DUP1 ISZERO PUSH2 0xF JUMPI PUSH0 PUSH0 REVERT JUMPDEST POP PUSH1 0x4 CALLDATASIZE LT PUSH2 0x34 JUMPI PUSH0 CALLDATALOAD PUSH1 0xE0 SHR DUP1 PUSH4 0x635A7E54 EQ PUSH2 0x38 JUMPI DUP1 PUSH4 0xC0ABDA2A EQ PUSH2 0x54 JUMPI JUMPDEST PUSH0 PUSH0 REVERT JUMPDEST PUSH2 0x52 PUSH1 0x4 DUP1 CALLDATASIZE SUB DUP2 ADD SWAP1 PUSH2 0x4D SWAP2 SWAP1 PUSH2 0x472 JUMP JUMPDEST PUSH2 0x87 JUMP JUMPDEST STOP JUMPDEST PUSH2 0x6E PUSH1 0x4 DUP1 CALLDATASIZE SUB DUP2 ADD SWAP1 PUSH2 0x69 SWAP2 SWAP1 PUSH2 0x52A JUMP JUMPDEST PUSH2 0x126 JUMP JUMPDEST PUSH1 0x40 MLOAD PUSH2 0x7E SWAP5 SWAP4 SWAP3 SWAP2 SWAP1 PUSH2 0x5C4 JUMP JUMPDEST PUSH1 0x40 MLOAD DUP1 SWAP2 SUB SWAP1 RETURN JUMPDEST PUSH0 PUSH1 0x40 MLOAD DUP1 PUSH1 0x80 ADD PUSH1 0x40 MSTORE DUP1 DUP7 DUP2 MSTORE PUSH1 0x20 ADD DUP6 DUP2 MSTORE PUSH1 0x20 ADD DUP5 DUP2 MSTORE PUSH1 0x20 ADD DUP4 DUP2 MSTORE POP SWAP1 POP PUSH0 DUP2 SWAP1 DUP1 PUSH1 0x1 DUP2 SLOAD ADD DUP1 DUP3 SSTORE DUP1 SWAP2 POP POP PUSH1 0x1 SWAP1 SUB SWAP1 PUSH0 MSTORE PUSH1 0x20 PUSH0 KECCAK256 SWAP1 PUSH1 0x4 MUL ADD PUSH0 SWAP1 SWAP2 SWAP1 SWAP2 SWAP1 SWAP2 POP PUSH0 DUP3 ADD MLOAD DUP2 PUSH0 ADD SWAP1 DUP2 PUSH2 0xE6 SWAP2 SWAP1 PUSH2 0x819 JUMP JUMPDEST POP PUSH1 0x20 DUP3 ADD MLOAD DUP2 PUSH1 0x1 ADD SWAP1 DUP2 PUSH2 0xFC SWAP2 SWAP1 PUSH2 0x819 JUMP JUMPDEST POP PUSH1 0x40 DUP3 ADD MLOAD DUP2 PUSH1 0x2 ADD SSTORE PUSH1 0x60 DUP3 ADD MLOAD DUP2 PUSH1 0x3 ADD SWAP1 DUP2 PUSH2 0x11C SWAP2 SWAP1 PUSH2 0x819 JUMP JUMPDEST POP POP POP POP POP POP POP POP JUMP JUMPDEST PUSH0 DUP2 DUP2 SLOAD DUP2 LT PUSH2 0x134 JUMPI PUSH0 DUP1 REVERT JUMPDEST SWAP1 PUSH0 MSTORE PUSH1 0x20 PUSH0 KECCAK256 SWAP1 PUSH1 0x4 MUL ADD PUSH0 SWAP2 POP SWAP1 POP DUP1 PUSH0 ADD DUP1 SLOAD PUSH2 0x153 SWAP1 PUSH2 0x649 JUMP JUMPDEST DUP1 PUSH1 0x1F ADD PUSH1 0x20 DUP1 SWAP2 DIV MUL PUSH1 0x20 ADD PUSH1 0x40 MLOAD SWAP1 DUP2 ADD PUSH1 0x40 MSTORE DUP1 SWAP3 SWAP2 SWAP1 DUP2 DUP2 MSTORE PUSH1 0x20 ADD DUP3 DUP1 SLOAD PUSH2 0x17F SWAP1 PUSH2 0x649 JUMP JUMPDEST DUP1 ISZERO PUSH2 0x1CA JUMPI DUP1 PUSH1 0x1F LT PUSH2 0x1A1 JUMPI PUSH2 0x100 DUP1 DUP4 SLOAD DIV MUL DUP4 MSTORE SWAP2 PUSH1 0x20 ADD SWAP2 PUSH2 0x1CA JUMP JUMPDEST DUP3 ADD SWAP2 SWAP1 PUSH0 MSTORE PUSH1 0x20 PUSH0 KECCAK256 SWAP1 JUMPDEST DUP2 SLOAD DUP2 MSTORE SWAP1 PUSH1 0x1 ADD SWAP1 PUSH1 0x20 ADD DUP1 DUP4 GT PUSH2 0x1AD JUMPI DUP3 SWAP1 SUB PUSH1 0x1F AND DUP3 ADD SWAP2 JUMPDEST POP POP POP POP POP SWAP1 DUP1 PUSH1 0x1 ADD DUP1 SLOAD PUSH2 0x1DF SWAP1 PUSH2 0x649 JUMP JUMPDEST DUP1 PUSH1 0x1F ADD PUSH1 0x20 DUP1 SWAP2 DIV MUL PUSH1 0x20 ADD PUSH1 0x40 MLOAD SWAP1 DUP2 ADD PUSH1 0x40 MSTORE DUP1 SWAP3 SWAP2 SWAP1 DUP2 DUP2 MSTORE PUSH1 0x20 ADD DUP3 DUP1 SLOAD PUSH2 0x20B SWAP1 PUSH2 0x649 JUMP JUMPDEST DUP1 ISZERO PUSH2 0x256 JUMPI DUP1 PUSH1 0x1F LT PUSH2 0x22D JUMPI PUSH2 0x100 DUP1 DUP4 SLOAD DIV MUL DUP4 MSTORE SWAP2 PUSH1 0x20 ADD SWAP2 PUSH2 0x256 JUMP JUMPDEST DUP3 ADD SWAP2 SWAP1 PUSH0 MSTORE PUSH1 0x20 PUSH0 KECCAK256 SWAP1 JUMPDEST DUP2 SLOAD DUP2 MSTORE SWAP1 PUSH1 0x1 ADD SWAP1 PUSH1 0x20 ADD DUP1 DUP4 GT PUSH2 0x239 JUMPI DUP3 SWAP1 SUB PUSH1 0x1F AND DUP3 ADD SWAP2 JUMPDEST POP POP POP POP POP SWAP1 DUP1 PUSH1 0x2 ADD SLOAD SWAP1 DUP1 PUSH1 0x3 ADD DUP1 SLOAD PUSH2 0x271 SWAP1 PUSH2 0x649 JUMP JUMPDEST DUP1 PUSH1 0x1F ADD PUSH1 0x20 DUP1 SWAP2 DIV MUL PUSH1 0x20 ADD PUSH1 0x40 MLOAD SWAP1 DUP2 ADD PUSH1 0x40 MSTORE DUP1 SWAP3 SWAP2 SWAP1 DUP2 DUP2 MSTORE PUSH1 0x20 ADD DUP3 DUP1 SLOAD PUSH2 0x29D SWAP1 PUSH2 0x649 JUMP JUMPDEST DUP1 ISZERO PUSH2 0x2E8 JUMPI DUP1 PUSH1 0x1F LT PUSH2 0x2BF JUMPI PUSH2 0x100 DUP1 DUP4 SLOAD DIV MUL DUP4 MSTORE SWAP2 PUSH1 0x20 ADD SWAP2 PUSH2 0x2E8 JUMP JUMPDEST DUP3 ADD SWAP2 SWAP1 PUSH0 MSTORE PUSH1 0x20 PUSH0 KECCAK256 SWAP1 JUMPDEST DUP2 SLOAD DUP2 MSTORE SWAP1 PUSH1 0x1 ADD SWAP1 PUSH1 0x20 ADD DUP1 DUP4 GT PUSH2 0x2CB JUMPI DUP3 SWAP1 SUB PUSH1 0x1F AND DUP3 ADD SWAP2 JUMPDEST POP POP POP POP POP SWAP1 POP DUP5 JUMP JUMPDEST PUSH0 PUSH1 0x40 MLOAD SWAP1 POP SWAP1 JUMP JUMPDEST PUSH0 PUSH0 REVERT JUMPDEST PUSH0 PUSH0 REVERT JUMPDEST PUSH0 PUSH0 REVERT JUMPDEST PUSH0 PUSH0 REVERT JUMPDEST PUSH0 PUSH1 0x1F NOT PUSH1 0x1F DUP4 ADD AND SWAP1 POP SWAP2 SWAP1 POP JUMP JUMPDEST PUSH32 0x4E487B7100000000000000000000000000000000000000000000000000000000 PUSH0 MSTORE PUSH1 0x41 PUSH1 0x4 MSTORE PUSH1 0x24 PUSH0 REVERT JUMPDEST PUSH2 0x351 DUP3 PUSH2 0x30B JUMP JUMPDEST DUP2 ADD DUP2 DUP2 LT PUSH8 0xFFFFFFFFFFFFFFFF DUP3 GT OR ISZERO PUSH2 0x370 JUMPI PUSH2 0x36F PUSH2 0x31B JUMP JUMPDEST JUMPDEST DUP1 PUSH1 0x40 MSTORE POP POP POP JUMP JUMPDEST PUSH0 PUSH2 0x382 PUSH2 0x2F2 JUMP JUMPDEST SWAP1 POP PUSH2 0x38E DUP3 DUP3 PUSH2 0x348 JUMP JUMPDEST SWAP2 SWAP1 POP JUMP JUMPDEST PUSH0 PUSH8 0xFFFFFFFFFFFFFFFF DUP3 GT ISZERO PUSH2 0x3AD JUMPI PUSH2 0x3AC PUSH2 0x31B JUMP JUMPDEST JUMPDEST PUSH2 0x3B6 DUP3 PUSH2 0x30B JUMP JUMPDEST SWAP1 POP PUSH1 0x20 DUP2 ADD SWAP1 POP SWAP2 SWAP1 POP JUMP JUMPDEST DUP3 DUP2 DUP4 CALLDATACOPY PUSH0 DUP4 DUP4 ADD MSTORE POP POP POP JUMP JUMPDEST PUSH0 PUSH2 0x3E3 PUSH2 0x3DE DUP5 PUSH2 0x393 JUMP JUMPDEST PUSH2 0x379 JUMP JUMPDEST SWAP1 POP DUP3 DUP2 MSTORE PUSH1 0x20 DUP2 ADD DUP5 DUP5 DUP5 ADD GT ISZERO PUSH2 0x3FF JUMPI PUSH2 0x3FE PUSH2 0x307 JUMP JUMPDEST JUMPDEST PUSH2 0x40A DUP5 DUP3 DUP6 PUSH2 0x3C3 JUMP JUMPDEST POP SWAP4 SWAP3 POP POP POP JUMP JUMPDEST PUSH0 DUP3 PUSH1 0x1F DUP4 ADD SLT PUSH2 0x426 JUMPI PUSH2 0x425 PUSH2 0x303 JUMP JUMPDEST JUMPDEST DUP2 CALLDATALOAD PUSH2 0x436 DUP5 DUP3 PUSH1 0x20 DUP7 ADD PUSH2 0x3D1 JUMP JUMPDEST SWAP2 POP POP SWAP3 SWAP2 POP POP JUMP JUMPDEST PUSH0 DUP2 SWAP1 POP SWAP2 SWAP1 POP JUMP JUMPDEST PUSH2 0x451 DUP2 PUSH2 0x43F JUMP JUMPDEST DUP2 EQ PUSH2 0x45B JUMPI PUSH0 PUSH0 REVERT JUMPDEST POP JUMP JUMPDEST PUSH0 DUP2 CALLDATALOAD SWAP1 POP PUSH2 0x46C DUP2 PUSH2 0x448 JUMP JUMPDEST SWAP3 SWAP2 POP POP JUMP JUMPDEST PUSH0 PUSH0 PUSH0 PUSH0 PUSH1 0x80 DUP6 DUP8 SUB SLT ISZERO PUSH2 0x48A JUMPI PUSH2 0x489 PUSH2 0x2FB JUMP JUMPDEST JUMPDEST PUSH0 DUP6 ADD CALLDATALOAD PUSH8 0xFFFFFFFFFFFFFFFF DUP2 GT ISZERO PUSH2 0x4A7 JUMPI PUSH2 0x4A6 PUSH2 0x2FF JUMP JUMPDEST JUMPDEST PUSH2 0x4B3 DUP8 DUP3 DUP9 ADD PUSH2 0x412 JUMP JUMPDEST SWAP5 POP POP PUSH1 0x20 DUP6 ADD CALLDATALOAD PUSH8 0xFFFFFFFFFFFFFFFF DUP2 GT ISZERO PUSH2 0x4D4 JUMPI PUSH2 0x4D3 PUSH2 0x2FF JUMP JUMPDEST JUMPDEST PUSH2 0x4E0 DUP8 DUP3 DUP9 ADD PUSH2 0x412 JUMP JUMPDEST SWAP4 POP POP PUSH1 0x40 PUSH2 0x4F1 DUP8 DUP3 DUP9 ADD PUSH2 0x45E JUMP JUMPDEST SWAP3 POP POP PUSH1 0x60 DUP6 ADD CALLDATALOAD PUSH8 0xFFFFFFFFFFFFFFFF DUP2 GT ISZERO PUSH2 0x512 JUMPI PUSH2 0x511 PUSH2 0x2FF JUMP JUMPDEST JUMPDEST PUSH2 0x51E DUP8 DUP3 DUP9 ADD PUSH2 0x412 JUMP JUMPDEST SWAP2 POP POP SWAP3 SWAP6 SWAP2 SWAP5 POP SWAP3 POP JUMP JUMPDEST PUSH0 PUSH1 0x20 DUP3 DUP5 SUB SLT ISZERO PUSH2 0x53F JUMPI PUSH2 0x53E PUSH2 0x2FB JUMP JUMPDEST JUMPDEST PUSH0 PUSH2 0x54C DUP5 DUP3 DUP6 ADD PUSH2 0x45E JUMP JUMPDEST SWAP2 POP POP SWAP3 SWAP2 POP POP JUMP JUMPDEST PUSH0 DUP2 MLOAD SWAP1 POP SWAP2 SWAP1 POP JUMP JUMPDEST PUSH0 DUP3 DUP3 MSTORE PUSH1 0x20 DUP3 ADD SWAP1 POP SWAP3 SWAP2 POP POP JUMP JUMPDEST DUP3 DUP2 DUP4 MCOPY PUSH0 DUP4 DUP4 ADD MSTORE POP POP POP JUMP JUMPDEST PUSH0 PUSH2 0x587 DUP3 PUSH2 0x555 JUMP JUMPDEST PUSH2 0x591 DUP2 DUP6 PUSH2 0x55F JUMP JUMPDEST SWAP4 POP PUSH2 0x5A1 DUP2 DUP6 PUSH1 0x20 DUP7 ADD PUSH2 0x56F JUMP JUMPDEST PUSH2 0x5AA DUP2 PUSH2 0x30B JUMP JUMPDEST DUP5 ADD SWAP2 POP POP SWAP3 SWAP2 POP POP JUMP JUMPDEST PUSH2 0x5BE DUP2 PUSH2 0x43F JUMP JUMPDEST DUP3 MSTORE POP POP JUMP JUMPDEST PUSH0 PUSH1 0x80 DUP3 ADD SWAP1 POP DUP2 DUP2 SUB PUSH0 DUP4 ADD MSTORE PUSH2 0x5DC DUP2 DUP8 PUSH2 0x57D JUMP JUMPDEST SWAP1 POP DUP2 DUP2 SUB PUSH1 0x20 DUP4 ADD MSTORE PUSH2 0x5F0 DUP2 DUP7 PUSH2 0x57D JUMP JUMPDEST SWAP1 POP PUSH2 0x5FF PUSH1 0x40 DUP4 ADD DUP6 PUSH2 0x5B5 JUMP JUMPDEST DUP2 DUP2 SUB PUSH1 0x60 DUP4 ADD MSTORE PUSH2 0x611 DUP2 DUP5 PUSH2 0x57D JUMP JUMPDEST SWAP1 POP SWAP6 SWAP5 POP POP POP POP POP JUMP JUMPDEST PUSH32 0x4E487B7100000000000000000000000000000000000000000000000000000000 PUSH0 MSTORE PUSH1 0x22 PUSH1 0x4 MSTORE PUSH1 0x24 PUSH0 REVERT JUMPDEST PUSH0 PUSH1 0x2 DUP3 DIV SWAP1 POP PUSH1 0x1 DUP3 AND DUP1 PUSH2 0x660 JUMPI PUSH1 0x7F DUP3 AND SWAP2 POP JUMPDEST PUSH1 0x20 DUP3 LT DUP2 SUB PUSH2 0x673 JUMPI PUSH2 0x672 PUSH2 0x61C JUMP JUMPDEST JUMPDEST POP SWAP2 SWAP1 POP JUMP JUMPDEST PUSH0 DUP2 SWAP1 POP DUP2 PUSH0 MSTORE PUSH1 0x20 PUSH0 KECCAK256 SWAP1 POP SWAP2 SWAP1 POP JUMP JUMPDEST PUSH0 PUSH1 0x20 PUSH1 0x1F DUP4 ADD DIV SWAP1 POP SWAP2 SWAP1 POP JUMP JUMPDEST PUSH0 DUP3 DUP3 SHL SWAP1 POP SWAP3 SWAP2 POP POP JUMP JUMPDEST PUSH0 PUSH1 0x8 DUP4 MUL PUSH2 0x6D5 PUSH32 0xFFFFFFFFFFFFFFFFFFFFFFFFFFFFFFFFFFFFFFFFFFFFFFFFFFFFFFFFFFFFFFFF DUP3 PUSH2 0x69A JUMP JUMPDEST PUSH2 0x6DF DUP7 DUP4 PUSH2 0x69A JUMP JUMPDEST SWAP6 POP DUP1 NOT DUP5 AND SWAP4 POP DUP1 DUP7 AND DUP5 OR SWAP3 POP POP POP SWAP4 SWAP3 POP POP POP JUMP JUMPDEST PUSH0 DUP2 SWAP1 POP SWAP2 SWAP1 POP JUMP JUMPDEST PUSH0 PUSH2 0x71A PUSH2 0x715 PUSH2 0x710 DUP5 PUSH2 0x43F JUMP JUMPDEST PUSH2 0x6F7 JUMP JUMPDEST PUSH2 0x43F JUMP JUMPDEST SWAP1 POP SWAP2 SWAP1 POP JUMP JUMPDEST PUSH0 DUP2 SWAP1 POP SWAP2 SWAP1 POP JUMP JUMPDEST PUSH2 0x733 DUP4 PUSH2 0x700 JUMP JUMPDEST PUSH2 0x747 PUSH2 0x73F DUP3 PUSH2 0x721 JUMP JUMPDEST DUP5 DUP5 SLOAD PUSH2 0x6A6 JUMP JUMPDEST DUP3 SSTORE POP POP POP POP JUMP JUMPDEST PUSH0 PUSH0 SWAP1 POP SWAP1 JUMP JUMPDEST PUSH2 0x75E PUSH2 0x74F JUMP JUMPDEST PUSH2 0x769 DUP2 DUP5 DUP5 PUSH2 0x72A JUMP JUMPDEST POP POP POP JUMP JUMPDEST JUMPDEST DUP2 DUP2 LT ISZERO PUSH2 0x78C JUMPI PUSH2 0x781 PUSH0 DUP3 PUSH2 0x756 JUMP JUMPDEST PUSH1 0x1 DUP2 ADD SWAP1 POP PUSH2 0x76F JUMP JUMPDEST POP POP JUMP JUMPDEST PUSH1 0x1F DUP3 GT ISZERO PUSH2 0x7D1 JUMPI PUSH2 0x7A2 DUP2 PUSH2 0x679 JUMP JUMPDEST PUSH2 0x7AB DUP5 PUSH2 0x68B JUMP JUMPDEST DUP2 ADD PUSH1 0x20 DUP6 LT ISZERO PUSH2 0x7BA JUMPI DUP2 SWAP1 POP JUMPDEST PUSH2 0x7CE PUSH2 0x7C6 DUP6 PUSH2 0x68B JUMP JUMPDEST DUP4 ADD DUP3 PUSH2 0x76E JUMP JUMPDEST POP POP JUMPDEST POP POP POP JUMP JUMPDEST PUSH0 DUP3 DUP3 SHR SWAP1 POP SWAP3 SWAP2 POP POP JUMP JUMPDEST PUSH0 PUSH2 0x7F1 PUSH0 NOT DUP5 PUSH1 0x8 MUL PUSH2 0x7D6 JUMP JUMPDEST NOT DUP1 DUP4 AND SWAP2 POP POP SWAP3 SWAP2 POP POP JUMP JUMPDEST PUSH0 PUSH2 0x809 DUP4 DUP4 PUSH2 0x7E2 JUMP JUMPDEST SWAP2 POP DUP3 PUSH1 0x2 MUL DUP3 OR SWAP1 POP SWAP3 SWAP2 POP POP JUMP JUMPDEST PUSH2 0x822 DUP3 PUSH2 0x555 JUMP JUMPDEST PUSH8 0xFFFFFFFFFFFFFFFF DUP2 GT ISZERO PUSH2 0x83B JUMPI PUSH2 0x83A PUSH2 0x31B JUMP JUMPDEST JUMPDEST PUSH2 0x845 DUP3 SLOAD PUSH2 0x649 JUMP JUMPDEST PUSH2 0x850 DUP3 DUP3 DUP6 PUSH2 0x790 JUMP JUMPDEST PUSH0 PUSH1 0x20 SWAP1 POP PUSH1 0x1F DUP4 GT PUSH1 0x1 DUP2 EQ PUSH2 0x881 JUMPI PUSH0 DUP5 ISZERO PUSH2 0x86F JUMPI DUP3 DUP8 ADD MLOAD SWAP1 POP JUMPDEST PUSH2 0x879 DUP6 DUP3 PUSH2 0x7FE JUMP JUMPDEST DUP7 SSTORE POP PUSH2 0x8E0 JUMP JUMPDEST PUSH1 0x1F NOT DUP5 AND PUSH2 0x88F DUP7 PUSH2 0x679 JUMP JUMPDEST PUSH0 JUMPDEST DUP3 DUP2 LT ISZERO PUSH2 0x8B6 JUMPI DUP5 DUP10 ADD MLOAD DUP3 SSTORE PUSH1 0x1 DUP3 ADD SWAP2 POP PUSH1 0x20 DUP6 ADD SWAP5 POP PUSH1 0x20 DUP2 ADD SWAP1 POP PUSH2 0x891 JUMP JUMPDEST DUP7 DUP4 LT ISZERO PUSH2 0x8D3 JUMPI DUP5 DUP10 ADD MLOAD PUSH2 0x8CF PUSH1 0x1F DUP10 AND DUP3 PUSH2 0x7E2 JUMP JUMPDEST DUP4 SSTORE POP JUMPDEST PUSH1 0x1 PUSH1 0x2 DUP9 MUL ADD DUP9 SSTORE POP POP POP JUMPDEST POP POP POP POP POP POP JUMP INVALID LOG2 PUSH5 0x6970667358 0x22 SLT KECCAK256 STATICCALL PUSH30 0xA16CFC4B00435EE9AD97B333DCD0D602944F3AF7F28FAF06E7AF570956E2 PUSH5 0x736F6C6343 STOP ADDMOD 0x1E STOP CALLER "
				},
				"gasEstimates": {
					"creation": {
						"codeDepositCost": "466800",
						"executionCost": "497",
						"totalCost": "467297"
					},
					"external": {
						"addCustomer(string,string,uint256,string)": "infinite",
						"customers(uint256)": "infinite"
					}
				},
				"methodIdentifiers": {
					"addCustomer(string,string,uint256,string)": "635a7e54",
					"customers(uint256)": "c0abda2a"
				}
			},
			"storageLayout": {
				"storage": [
					{
						"astId": 14,
						"contract": "Structs/structs.sol:Struct",
						"label": "customers",
						"offset": 0,
						"slot": "0",
						"type": "t_array(t_struct(Customer)10_storage)dyn_storage"
					}
				],
				"types": {
					"t_array(t_struct(Customer)10_storage)dyn_storage": {
						"base": "t_struct(Customer)10_storage",
						"encoding": "dynamic_array",
						"label": "struct Struct.Customer[]",
						"numberOfBytes": "32"
					},
					"t_string_storage": {
						"encoding": "bytes",
						"label": "string",
						"numberOfBytes": "32"
					},
					"t_struct(Customer)10_storage": {
						"encoding": "inplace",
						"label": "struct Struct.Customer",
						"members": [
							{
								"astId": 3,
								"contract": "Structs/structs.sol:Struct",
								"label": "Company",
								"offset": 0,
								"slot": "0",
								"type": "t_string_storage"
							},
							{
								"astId": 5,
								"contract": "Structs/structs.sol:Struct",
								"label": "Position",
								"offset": 0,
								"slot": "1",
								"type": "t_string_storage"
							},
							{
								"astId": 7,
								"contract": "Structs/structs.sol:Struct",
								"label": "Salary",
								"offset": 0,
								"slot": "2",
								"type": "t_uint256"
							},
							{
								"astId": 9,
								"contract": "Structs/structs.sol:Struct",
								"label": "TimeStarted",
								"offset": 0,
								"slot": "3",
								"type": "t_string_storage"
							}
						],
						"numberOfBytes": "128"
					},
					"t_uint256": {
						"encoding": "inplace",
						"label": "uint256",
						"numberOfBytes": "32"
					}
				}
			},
			"userdoc": {
				"kind": "user",
				"methods": {},
				"version": 1
			}
		}
	}
}